:10000000F7EF25F00000000000EF00F00000000016
:0A0010000000000000000000F3D71C
:08001C000AAE029E000E120064
:100024000B840BAE1DEF00F0010E036E026A016A31
:0A003400006A0A360232FF0E1200C5
:0E003E00026A016A006A086A036A000E120074
:10004C000B820BAE30EF00F00368026801680068A9
:08005C000A360232FF0E120009
:100064000CB074EF00F00CA21AEF01F00E6A000E4F
:1000740002648BEF00F0F00E0214D8A456EF00F0E7
:10008400023A01380F0B02260138F00B016E0038DA
:100094000F0B01260038F00B006E08380F0B0026FA
:1000A4000838F00B086E0E84D89002BE6FEF00F093
:1000B40008360036013602360E2A02BE6FEF00F013
:1000C40008360036013602360E2A02BE6FEF00F003
:1000D40008360036013602360E2A0E50036410EF3D
:1000E40001F0035E0BBC08AE15EF01F0D880800E62
:1000F40008640030000E002201220222D8A015EF6D
:1001040001F0023201320032034A1AEF01F015EF16
:1001140001F001C002F000C001F008C000F0086A5C
:10012400000E0E860264C2EF00F0F00E0214D8A492
:10013400AAEF00F0023A01380F0B02260138F00B47
:10014400016E00380F0B01260038F00B006E0E8490
:10015400D89002BE6FEF00F00036013602360E2A48
:1001640002BE6FEF00F00036013602360E2A02BEE0
:100174006FEF00F00036013602360E2A6FEF00F002
:1001840001C002F000C001F0006A000E0E960E8855
:100194000264EFEF00F0F00E0214D8A4DAEF00F0DE
:1001A400023A01380F0B02260138F00B016E0E845F
:1001B400D89002BE6FEF00F0013602360E2A02BE5E
:1001C4006FEF00F0013602360E2A02BE6FEF00F028
:1001D400013602360E2A6FEF00F001C002F0016A08
:1001E400000E0E8602641FEF01F0F00E0214D8A474
:1001F400FEEF00F0023A0E84D89002BE6FEF00F0DA
:1002040002360E2A02BE6FEF00F002360E2A02BE3C
:100214006FEF00F002360E2A6FEF00F0010E0C6E45
:10022400FFDE22EF01F0020E0C6EF6DE22EF01F08B
:10023400040E0C6E09DF22EF01F0080E0C6EFDDED9
:020244001200A6
:100246000D6A086A0050D8B4000C04180A6E0ABE7B
:100256000D1E0B6A04AE02D0041E042A00AE02D0A4
:10026600001E002A005004100A6E0ABE1FD0045059
:10027600085E003600340836045008260036060E9E
:100286000C6E00340836045000B0085E00A0082644
:1002960000360C2EF6D700A008260BB015D00DAEF2
:1002A600000C001E002A081E082A000C04AE09D005
:1002B60000BE04D00050086E006AF1D7006A002A1A
:1002C600000C001E0B2AD3D7082A0450085CD8A4B9
:0E02D600E6D7086A002A00AEE2D7FF0C12003D
:1002E4000134083609360450085E0550D8A0053C90
:1002F400095E003601360F0E0C6E013408360936DD
:10030400045000A006D0085E0550D8A0053C095E44
:1003140005D008260550D8B0053C0926003601361C
:100324000C2EEBD700B006D0045008260550D8B0E8
:08033400053C0926000012003F
:10033C00086A080E0C6E003408360450085ED8B0FB
:0E034C0002D00826D89000360C2EF5D71200ED
:10035A00086A096A000E0762036432EF02F002506B
:10036A0006180A6E075003267E0ED8A0C3EF01F0C6
:10037A00035ED8B036EF02F0C7EF01F0035ED8A0F3
:10038A003AEF02F0028E068E02C00EF001C00BF0A8
:10039A0000C00DF000500402F4CF0CF00150050229
:1003AA00F4CF00F0F3CF08F00402F3500C26F45017
:1003BA000822000E00220D500502F3500C26F450BC
:1003CA000822000E002202500402F3500826F450BC
:1003DA00002202500502016A000E0122F350002693
:1003EA00F45001220D500602F3500826F450002260
:1003FA00026A000E012202220B500602F350002666
:10040A00F4500122000E02220E500602F350012679
:10041A00F450022202BE1AEF02F008360036013604
:10042A0002360306D8B43AEF02F02DEF02F0D88074
:10043A00800E08640030000E002201220222D8A099
:10044A002DEF02F0023201320032034A36EF02F097
:10045A000AAE029E000E3CEF02F0010EEBDD3CEF0D
:10046A0002F0020EEEDD3CEF02F0040ED6DD1200C1
:10047A00025006180E6E086A096A0B6A035007646E
:10048A0030EF03F006500A6E068E028E03500B6E92
:10049A000750036E000E0B6480EF02F00B50075EEC
:1004AA00D8B421EF03F0070E0764EFEF02F0075EFE
:1004BA0000C008F001C000F002C001F0026A074E55
:1004CA0021EF03F00764C4EF02F0075E00C008F0F2
:1004DA0001C000F0016A074E21EF03F00764A2EFA2
:1004EA0002F0075E00C008F0006A074E21EF03F031
:1004FA00076489EF02F00AC002F005C001F004C0E7
:10050A0000F0086A4DEF04F0030E076494EF02F05E
:10051A00075E08380F0B086E074E21EF03F0D890DC
:10052A000832074E21EF03F0D8900832074E21EF28
:10053A0003F0D890083221EF03F0030E0764B3EFFB
:10054A0002F0075E08380F0B086E0038F00B082619
:10055A0000380F0B006E074E21EF03F0D8900032DF
:10056A000832074E21EF03F0D89000320832074EC6
:10057A0021EF03F0D8900032083221EF03F0030E86
:10058A000764DBEF02F0075E08380F0B086E0038CD
:10059A00F00B082600380F0B006E0138F00B00260E
:1005AA0001380F0B016E074E21EF03F0D89001328C
:1005BA0000320832074E21EF03F0D89001320032A0
:1005CA000832074E21EF03F0D89001320032083288
:1005DA0021EF03F0030E07640CEF03F0075E0838FF
:1005EA000F0B086E0038F00B082600380F0B006E50
:1005FA000138F00B002601380F0B016E0238F00BA0
:10060A00012602380F0B026E074E21EF03F0D89035
:10061A000232013200320832074E21EF03F0D8903D
:10062A000232013200320832074E21EF03F0D8902D
:10063A000232013200320832096A000E0EAE15EF9C
:10064A0004F0081E001E011E021E082A00220122B2
:10065A00022215EF04F00750D8A436EF03F04DEF4D
:10066A0004F0096A02C00AF0028E068E0750035C83
:10067A00076ED8B408EF04F0070E0764D6EF03F04C
:10068A00075E0450096E0550046E0650056E066A30
:10069A00074E08EF04F0070E0764ABEF03F0075E9E
:1006AA000450096E0550046E056A074E08EF04F0FF
:1006BA00070E076489EF03F0075E0450096E046AA7
:1006CA00074E08EF04F0070E076470EF03F00AC044
:1006DA0002F04DEF04F0030E07647BEF03F0075EB0
:1006EA0009380F0B096E074E08EF04F0D89009324B
:1006FA00074E08EF04F0D8900932074E08EF04F0CD
:10070A00D890093208EF04F0030E07649AEF03F059
:10071A00075E09380F0B096E0438F00B09260438F6
:10072A000F0B046E074E08EF04F0D890043209321A
:10073A00074E08EF04F0D89004320932074E08EF4A
:10074A0004F0D8900432093208EF04F0030E07646B
:10075A00C2EF03F0075E09380F0B096E0438F00B7D
:10076A00092604380F0B046E0538F00B04260538E9
:10077A000F0B056E074E08EF04F0D89005320432CD
:10078A000932074E08EF04F0D890053204320932D4
:10079A00074E08EF04F0D89005320432093208EF08
:1007AA0004F0030E0764F3EF03F0075E09380F0B3A
:1007BA00096E0438F00B092604380F0B046E05384D
:1007CA00F00B042605380F0B056E0638F00B0526CC
:1007DA0006380F0B066E074E08EF04F0D890063263
:1007EA00053204320932074E08EF04F0D890063277
:1007FA00053204320932074E08EF04F0D890063267
:10080A00053204320932086A000E0EAE15EF04F002
:10081A00091E041E051E061E092A04220522062296
:10082A0009500826045000220550012206500222CF
:10083A000EBE2CEF04F0D8A03BEF04F002320132D6
:10084A0000320832033E3BEF04F047EF04F0D8B021
:10085A0041EF04F0000E081E001E011E021E082AA7
:10086A000022012202220A7E41EF04F0010E0C6EE0
:10087A0032EC00F04FEF04F0020E0C6E32EC00F096
:10088A004FEF04F0040E0C6E26EC00F04FEF04F06C
:06089A00000E0C6E1200BE
:1008A0000B800BAE5CEF04F0026A0AAEFF0E026E24
:0C08B000016E006E0A360232FF0E1200CC
:0808BC000B6A0B86FF0E12000F
:0408C400000012001E
:0C08C800100E0D6E0D2EFED70000120069
:1008D400080E0C6E230E0D6E0D2EFED70C2EFCD7BB
:0208E400120000
:0608E600067EC8DD1200D1
:1008EC000050086E0150006E0250016E0350026EF3
:1008FC00036A0B6A0C6A9E0E036E0A6A020E0C6E79
:06090C0032EC00F01200C5
:100912006E0E0501945DD8A0C3D0640E046E94C51A
:1009220000F00BDD120E0024056E066A000E062290
:1009320005C000F006C001F0000E06BEFF0E026EFA
:10094200036E003600900136023603360036009000
:10095200013602360336F40E0024F66E4E0E0120E6
:10096200F76E000E0220F86E0900F5CF00F00900C4
:10097200F5CF01F00900F5CF02F00900F5CF03F041
:10098200000E046E000E056E000E066E7E0E076EE1
:10099200E3DC00C095F501C096F502C097F503C0EF
:1009A20098F5640E046E94C500F0C7DC08C000F030
:1009B2000A0E046EC2DC090E0024056E066A000EE1
:1009C200062205C000F006C001F0000E06BEFF0EB2
:1009D200026E036E00360090013602360336003690
:1009E2000090013602360336F40E0024F66E4E0EE7
:1009F2000120F76E000E0220F86E0900F5CF00F01C
:100A02000900F5CF01F00900F5CF02F00900F5CF9A
:100A120003F095C504F096C505F097C506F098C594
:100A220007F09ADC00C095F501C096F502C097F573
:100A320003C098F50A0E046E94C500F07EDC08C06F
:100A420000F000C001F0000E026E036E046E01366B
:100A5200019002360336043601360190023603361F
:100A62000436F40E0124F66E4E0E0220F76E000ECE
:100A72000320F86E0900F5CF00F00900F5CF01F070
:100A82000900F5CF02F00900F5CF03F095C504F097
:100A920096C505F097C506F098C507F05DDCAED0A7
:100AA20094510A08D8B07BD00A0E046E94C500F0A7
:100AB20044DC090E0024056E066A000E062205C0FB
:100AC20000F006C001F0000E06BEFF0E026E036EBD
:100AD20000360090013602360336003600900136A9
:100AE20002360336F40E0024F66E4E0E0120F76E27
:100AF200000E0220F86E0900F5CF00F00900F5CFD4
:100B020001F00900F5CF02F00900F5CF03F0000E65
:100B1200046E000E056E000E066E7E0E076E1CDC65
:100B220000C095F501C096F502C097F503C098F58F
:100B32000A0E046E94C500F000DC08C000F000C08C
:100B420001F0000E026E036E046E01360190023651
:100B52000336043601360190023603360436F40EAB
:100B62000124F66E4E0E0220F76E000E0320F86E80
:100B72000900F5CF00F00900F5CF01F00900F5CF2B
:100B820002F00900F5CF03F095C504F096C505F013
:100B920097C506F098C507F0ADEC01F02FD094C5CB
:100BA20000F0000E016E026E036E003600900136F8
:100BB2000236033600360090013602360336F40E52
:100BC2000024F66E4E0E0120F76E000E0220F86E23
:100BD2000900F5CF00F00900F5CF01F00900F5CFCB
:100BE20002F00900F5CF03F0000E046E000E056E50
:0E0BF200000E066E7E0E076EADEC01F01200D6
:100C000005019451390806E3300E945D03E3010EAB
:080C1000006E01D0006A120021
:100C18000B6A0C6A0A6A086A0350D8B494EF06F0A3
:100C2800028E9E0E035E03BE1FEF06F0D8B41FEFC0
:100C380006F084EF06F0036C080E035CD8A051EFB1
:100C480006F0036E083600C008F001C000F002C0CC
:100C580001F0026A080E035CD8A051EF06F0036E9B
:100C6800083600C008F001C000F0016A080E035CF5
:100C7800D8A051EF06F0036E083600C008F0006AED
:100C8800080E035CD8A051EF06F0036E0836086A18
:100C98000350D8A4D8905DEF06F00350D8B45DEFA8
:100CA80006F0D8900232013200320832032E55EF96
:100CB80006F00BBC08A06EEF06F0D8A06EEF06F0A9
:100CC800082AD8B4002AD8B4012AD8B4022A02BE05
:100CD80098EF06F00AAE94EF06F0021E011E001E01
:100CE800081E082AD8B4002AD8B4012AD8B4022A7F
:100CF80094EF06F0026A016A006A086A94EF06F047
:100D08000B800BAE9DEF06F0026A0AAE9DEF06F06F
:100D1800026E016E006E086E0A3602329DEF06F012
:100D2800000E0C6A9EEF06F0010E0C6EB5DD9EEF0C
:100D380006F0FF0E0250036E0150026E0050016E65
:060D48000850006E1200CD
:100D4E000450000A12E10550000A0FE10650000A95
:100D5E000CE10750000A09E1FF0E006EFF0E016E56
:100D6E007F0E026EFF0E036EA7D0086A096A075047
:100D7E00D8B452EF07F00350D8B456EF07F0025034
:100D8E0006180A6E028E068E0E6A02C008F001C0A8
:100D9E000CF000C00DF004500D5E0550D8A0053CBF
:100DAE000C5E0650D8A0063C085E086A0C6A0D6AF6
:100DBE00D8A0E9EF06F0D8900232013200320832A4
:100DCE00010E0E6E0750035ED8A0F6EF06F07E0EF3
:100DDE000E240326D8B05BEF07F0FCEF06F07E0E74
:100DEE000E240326D8A060EF07F0180E0B6E0D36FA
:100DFE000C3608360036013602360E360450005ECA
:100E0E000550D8A0053C015E0650D8A0063C025EF7
:100E1E0006340E120EA017EF07F00D8022EF07F02A
:100E2E00045000260550D8B0053C01260650D8B017
:100E3E00062802260D900B2EFEEF06F048EF07F067
:100E4E00D8900036013602360E360450005E05503C
:100E5E00D8A0053C015E0650D8A0063C025E0634C2
:100E6E000E10010B0D26D8B00C2AD8B4082AD8A41F
:100E7E0048EF07F008320C320D32032AD8B45BEF7C
:100E8E0007F00AAE089E0850026E0C50016E0D500F
:100E9E00006E63EF07F0010E0ADD63EF07F0020E3E
:100EAE001FEC00F063EF07F0040E26EC00F063EF8A
:0A0EBE0007F0080E12EC00F012001D
:100EC800800E05019419006E800E000A005CD8B0EF
:100ED8006DD194510008016E01C094F5800E01187F
:100EE800006E800E6E0A005CD8A0C0D0640E046E3E
:100EF80094C500F023EC01F0120E0024056E000EDC
:100F080000BEFF0E066E000E062205C000F006C0E9
:100F180001F0000E06BEFF0E026E036E0036009052
:100F280001360236033600360090013602360336A3
:100F3800F40E0024F66E4E0E0120F76E000E02200D
:100F4800F86E0900F5CF95F50900F5CF96F509007B
:100F5800F5CF97F50900F5CF98F5640E046E94C5A2
:100F680000F023EC01F008C000F00A0E046E23EC38
:100F780001F0090E0024056E000E00BEFF0E066E7D
:100F8800000E062205C000F006C001F0000E06BEE5
:100F9800FF0E026E036E00360090013602360336ED
:100FA80000360090013602360336F40E0024F66E41
:100FB8004E0E0120F76E000E0220F86E0900F5CFE4
:100FC80000F00900F5CF01F00900F5CF02F00900A3
:100FD800F5CF03F095C504F096C505F097C506F062
:100FE80098C507F0ADEC01F000C095F501C096F585
:100FF80002C097F503C098F50A0E046E94C500F078
:1010080023EC01F008C000F000C001F0000E00BEA3
:10101800FF0E026E036E046E01360190023603362F
:10102800043601360190023603360436F40E0124E4
:10103800F66E4E0E0220F76E000E0320F86E0900C1
:10104800F5CF00F00900F5CF01F00900F5CF02F067
:101058000900F5CF03F095C504F096C505F097C5CE
:1010680006F098C507F0ADEC01F007D2800E0A0A29
:10107800006E800E9419005C71E20A0E046E94C52D
:1010880000F023EC01F0090E0024056E000E00BEEE
:10109800FF0E066E000E062205C000F006C001F025
:1010A800000E06BEFF0E026E036E0036009001367B
:1010B8000236033600360090013602360336F40E47
:1010C8000024F66E4E0E0120F76E000E0220F86E18
:1010D8000900F5CF95F50900F5CF96F50900F5CF8C
:1010E80097F50900F5CF98F50A0E046E94C500F03F
:1010F80023EC01F008C000F000C001F0000E00BEB3
:10110800FF0E026E036E046E01360190023603363E
:10111800043601360190023603360436F40E0124F3
:10112800F66E4E0E0220F76E000E0320F86E0900D0
:10113800F5CF00F00900F5CF01F00900F5CF02F076
:101148000900F5CF03F095C504F096C505F097C5DD
:1011580006F098C507F0ADEC01F08FD194C500F00A
:10116800000E94BFFF0E016E026E036E00360090F3
:101178000136023603360036009001360236033651
:10118800F40E0024F66E4E0E0120F76E000E0220BB
:10119800F86E0900F5CF00F00900F5CF01F009005D
:1011A800F5CF02F00900F5CF03F067D1800E94194E
:1011B800006E800E6E0A005CD8A0C0D0640E046E6B
:1011C80094C500F023EC01F0120E0024056E000E09
:1011D80000BEFF0E066E000E062205C000F006C017
:1011E80001F0000E06BEFF0E026E036E0036009080
:1011F80001360236033600360090013602360336D1
:10120800280E0024F66E4F0E0120F76E000E022005
:10121800F86E0900F5CF95F50900F5CF96F50900A8
:10122800F5CF97F50900F5CF98F5640E046E94C5CF
:1012380000F023EC01F008C000F00A0E046E23EC65
:1012480001F0090E0024056E000E00BEFF0E066EAA
:10125800000E062205C000F006C001F0000E06BE12
:10126800FF0E026E036E003600900136023603361A
:1012780000360090013602360336280E0024F66E3A
:101288004F0E0120F76E000E0220F86E0900F5CF10
:1012980000F00900F5CF01F00900F5CF02F00900D0
:1012A800F5CF03F095C504F096C505F097C506F08F
:1012B80098C507F0ADEC01F000C095F501C096F5B2
:1012C80002C097F503C098F50A0E046E94C500F0A5
:1012D80023EC01F008C000F000C001F0000E00BED1
:1012E800FF0E026E036E046E01360190023603365D
:1012F800043601360190023603360436280E0124DE
:10130800F66E4F0E0220F76E000E0320F86E0900ED
:10131800F5CF00F00900F5CF01F00900F5CF02F094
:101328000900F5CF03F095C504F096C505F097C5FB
:1013380006F098C507F0ADEC01F09FD0800E0A0AC0
:10134800006E800E9419005C71E20A0E046E94C55A
:1013580000F023EC01F0090E0024056E000E00BE1B
:10136800FF0E066E000E062205C000F006C001F052
:10137800000E06BEFF0E026E036E003600900136A8
:101388000236033600360090013602360336280E40
:101398000024F66E4F0E0120F76E000E0220F86E44
:1013A8000900F5CF95F50900F5CF96F50900F5CFB9
:1013B80097F50900F5CF98F50A0E046E94C500F06C
:1013C80023EC01F008C000F000C001F0000E00BEE0
:1013D800FF0E026E036E046E01360190023603366C
:1013E800043601360190023603360436280E0124ED
:1013F800F66E4F0E0220F76E000E0320F86E0900FD
:10140800F5CF00F00900F5CF01F00900F5CF02F0A3
:101418000900F5CF03F095C504F096C505F097C50A
:1014280006F098C507F0ADEC01F027D094C500F0A0
:10143800000E94BFFF0E016E026E036E0036009020
:10144800013602360336003600900136023603367E
:10145800280E0024F66E4F0E0120F76E000E0220B3
:10146800F86E0900F5CF00F00900F5CF01F009008A
:0C147800F5CF02F00900F5CF03F01200E0
:101484000450000A08E10550000A05E1FF0E006E51
:101494007F0E016E58D00D6A096A086A0150001067
:1014A400D8B4000C015005180A6E0ABE0D1E0B6A52
:1014B40005AE05D0041E051E042AD8B4052A01AEC3
:1014C40005D0001E011E002AD8B4012A01500510BF
:1014D4000A6E0ABE10D072EC01F00BB020D00DAE33
:1014E400000C001E011E002AD8B4012A081E091E81
:1014F400082AD8B4092A000C05AE0DD001BE07D0C5
:101504000150096E0050086E016A006AE8D7016A4A
:10151400006A002A000C011E001E0B2ADDD7082ACF
:10152400D8B4092A0450085CD8A4D9D70550095C5A
:10153400D8A4D5D7096A086A002AD8B4012A01AE0A
:08154400CED70000FF0C1200DD
:10154C0003500718D8A4BAEF0AF002500618D8A412
:10155C00BAEF0AF001500518D8A4BAEF0AF00050FF
:0E156C000418D8B4D8841200D89412001200CB
:10157A000B6A0A6A096A086A0E6A03340836045052
:10158A00085E0550D8A0053C095E0650D8A0063C66
:10159A000A5E0750D8A0073C0B5EE86AD8A0010E85
:1015AA000E5E0336070E0C6E0334083609360A3609
:1015BA000B360E36045003A012D0085E0550D8A090
:1015CA00053C095E0650D8A0063C0A5E0750D8A022
:1015DA00073C0B5EE86AD8A0010E0E5E11D0082601
:1015EA000550D8B0053C09260650D8B0063C0A2654
:1015FA000750D8B0073C0B26E86AD8B0010E0E2671
:10160A0003360C2ED1D70234083609360A360B3681
:10161A000E36045003A012D0085E0550D8A0053C2F
:10162A00095E0650D8A0063C0A5E0750D8A0073CBF
:10163A000B5EE86AD8A0010E0E5E11D0082605508E
:10164A00D8B0053C09260650D8B0063C0A260750F1
:10165A00D8B0073C0B26E86AD8B0010E0E2602362F
:10166A00070E0C6E0234083609360A360B360E3669
:10167A00045002A012D0085E0550D8A0053C095EAD
:10168A000650D8A0063C0A5E0750D8A0073C0B5E5D
:10169A00E86AD8A0010E0E5E11D008260550D8B00F
:1016AA00053C09260650D8B0063C0A260750D8B091
:1016BA00073C0B26E86AD8B0010E0E2602360C2E1D
:1016CA00D1D70134083609360A360B360E3604509D
:1016DA0002A012D0085E0550D8A0053C095E06504B
:1016EA00D8A0063C0A5E0750D8A0073C0B5EE86A01
:1016FA00D8A0010E0E5E11D008260550D8B0053CC0
:10170A0009260650D8B0063C0A260750D8B0073C2E
:10171A000B26E86AD8B0010E0E260136070E0C6EAB
:10172A000134083609360A360B360E36045001A043
:10173A0012D0085E0550D8A0053C095E0650D8A014
:10174A00063C0A5E0750D8A0073C0B5EE86AD8A0A0
:10175A00010E0E5E11D008260550D8B0053C0926A8
:10176A000650D8B0063C0A260750D8B0073C0B26CC
:10177A00E86AD8B0010E0E2601360C2ED1D70034F5
:10178A00083609360A360B360E36045001A012D036
:10179A00085E0550D8A0053C095E0650D8A0063C54
:1017AA000A5E0750D8A0073C0B5EE86AD8A0010E73
:1017BA000E5E11D008260550D8B0053C0926065001
:1017CA00D8B0063C0A260750D8B0073C0B26E86A70
:1017DA00D8B0010E0E260036070E0C6E00340836FD
:1017EA0009360A360B360E36045000A012D0085EAF
:1017FA000550D8A0053C095E0650D8A0063C0A5EF2
:10180A000750D8A0073C0B5EE86AD8A0010E0E5E0E
:10181A0011D008260550D8B0053C09260650D8B084
:10182A00063C0A260750D8B0073C0B26E86AD8B00F
:10183A00010E0E2600360C2ED1D700B00ED0045061
:10184A0008260550D8B0053C09260650D8B0063CF3
:0C185A000A260750D8B0073C0B261200ED
:10186600050194BF02D0819C01D0818C94BD02D029
:10187600819A01D0818A94BB02D0819801D0818857
:1018860094B902D0829401D0828401014CB102D075
:10189600828001D08290828262EC04F082920501FD
:1018A60094B702D0819C01D0818C94B502D0819AE4
:1018B60001D0818A94B302D0819801D0818894B1F5
:1018C60002D0829401D0828401014CB102D0828080
:1018D60001D08290828262EC04F082924CA103D005
:0C18E6006AEC04F002D064EC04F0120084
:1018F2000B6A0C6A086A0350D8B4FDEF0CF002C000
:101902000AF0028E9E0E035E03AEEDEF0CF0036C46
:10191200080E035CD8A0BAEF0CF0036E083600C0C4
:1019220008F001C000F002C001F0026A080E035C78
:10193200D8A0BAEF0CF0036E083600C008F001C060
:1019420000F0016A080E035CD8A0BAEF0CF0036E37
:10195200083600C008F0006A080E035CD8A0BAEF8F
:101962000CF0036E0836086A0350D8A4D890C6EF6C
:101972000CF00350D8B4C6EF0CF0D890023201320A
:1019820000320832032EBEEF0CF00BBC08A0D7EFDA
:101992000CF0D8A0D7EF0CF0082AD8B4002AD8B49B
:1019A200012AD8B4022A02BE01EF0DF00AAEFDEF01
:1019B2000CF0021E011E001E081E082AD8B4002ABE
:1019C200D8B4012AD8B4022AFDEF0CF0026A016AE7
:1019D200006A086AFDEF0CF00B800BAE08EF0DF009
:1019E200026A0AAE08EF0DF0026E016E006E086E1A
:1019F2000A36023208EF0DF00C6A000E09EF0DF004
:101A0200010E0C6E000E50EC04F009EF0DF0FF0E0B
:101A12000250036E0150026E0050016E0850006EBB
:021A22001200B0
:101A24000B6A0A6A096A00500402F4CF09F0F3CF82
:101A340008F001500502F4CF0BF0F3CF0AF0005088
:101A44000502F3500926F4500A22E86A0B220150D9
:101A54000402F3500926F4500A22E86A0B2208C053
:101A640000F009C001F00AC002F00BC003F012003C
:101A74000A6A0350D8A40A800750D8A40A820A50DC
:101A8400D8B49DEF0DF0030AD8B456EF0DF00AB0A8
:101A940051EF0DF006AE9BEF0DF099EF0DF002AE95
:101AA40099EF0DF09BEF0DF00250800B0A6E029E31
:101AB4000650800B069E0A18D8B467EF0DF00A5042
:101AC400D8B499EF0DF09BEF0DF00750035CD8B438
:101AD40071EF0DF0D8A08DEF0DF093EF0DF00650DF
:101AE400025CD8B47BEF0DF0D8A08DEF0DF093EF2E
:101AF4000DF00550015CD8B485EF0DF0D8A08DEF42
:101B04000DF093EF0DF00450005CD8B49DEF0DF090
:101B1400D8B093EF0DF00A52D8B49BEF0DF099EFC3
:101B24000DF00A52D8B499EF0DF09BEF0DF0D88068
:0E1B34001200D8901200D880D884120012003F
:101B420005018C6B8D6B806B816B6EC500F06FC570
:101B520001F070C502F0010E6E27000E6F23702394
:101B620000C0F6FF01C0F7FF02C0F8FF0900F5CF81
:101B720000F000C07DF50052D8B4ABEF1DF07D51EE
:101B8200250A0BE06CC5E1FF6DC5E2FF7DC5E6FFEE
:101B92006C4B6D2B8C4B8D2BD8D77E6B7F6B806BF8
:101BA200816B23D08087010E6E27000E6F23702376
:101BB20059D08081010E6E27000E6F23702352D000
:101BC2008083010E6E27000E6F2370234BD0818716
:101BD200010E6E27000E6F23702344D08085010E04
:101BE2006E27000E6F2370233DD06EC5F6FF6FC5C2
:101BF200F7FF70C5F8FF0900F5CF01F001502D0A7B
:101C0200D1E06EC5F6FF6FC5F7FF70C5F8FF09009A
:101C1200F5CF01F00150200ACCE06EC5F6FF6FC58A
:101C2200F7FF70C5F8FF0900F5CF01F001502B0A4C
:101C3200C7E06EC5F6FF6FC5F7FF70C5F8FF090074
:101C4200F5CF01F00150230AC2E06EC5F6FF6FC561
:101C5200F7FF70C5F8FF0900F5CF01F00150300A17
:101C6200BDE001D09ED780A301D0809180A701D092
:101C720080956EC5F6FF6FC5F7FF70C5F8FF0900C6
:101C8200F5CF00F0000E016E00C094F500EC06F0F6
:101C9200005235E07E6B7F6B7EC500F07FC501F0A0
:101CA2000A0E046E000E056EBCDE6EC5F6FF6FC531
:101CB200F7FF70C5F8FF0900F5CF02F002500024CB
:101CC2007E6F000E01207F6F300E7E5F000E7F5B05
:101CD200010E6E27000E6F2370236EC5F6FF6FC5CF
:101CE200F7FF70C5F8FF0900F5CF00F0000E016E96
:101CF20000C094F500EC06F00052CEE133D06EC580
:101D0200F6FF6FC5F7FF70C5F8FF0900F5CF01F0C8
:101D120001502A0A27E171C5E9FF72C5EAFFEECF39
:101D220000F0EECF01F000C0E9FF01C0EAFFEECF04
:101D32007EF5EECF7FF571C5E9FF72C5EAFF020EAF
:101D4200EE24006E000EEE20016E71C5E1FF72C539
:101D5200E2FF00C0E6FF01C0E6FF010E6E27000EA3
:101D62006F2370236EC5F6FF6FC5F7FF70C5F8FFCE
:101D72000900F5CF01F001502E0A6FE1010E6E2726
:101D8200000E6F2370236EC5F6FF6FC5F7FF70C597
:101D9200F8FF0900F5CF01F001502A0A28E171C5C8
:101DA200E9FF72C5EAFFEECF00F0EECF01F000C00E
:101DB200E9FF01C0EAFFEECF7BF5EECF7CF571C5FE
:101DC200E9FF72C5EAFF020EEE24006E000EEE205D
:101DD200016E71C5E1FF72C5E2FF00C0E6FF01C0FE
:101DE200E6FF010E6E27000E6F23702335D07B6B4A
:101DF2007C6B6EC5F6FF6FC5F7FF70C5F8FF090073
:101E0200F5CF00F0000E016E00C094F500EC06F074
:101E1200005222E07BC500F07CC501F00A0E046E80
:101E2200000E056EFEDD6EC5F6FF6FC5F7FF70C5CD
:101E3200F8FF0900F5CF02F0025000247B6F000E7C
:101E420001207C6F300E7B5F000E7C5B010E6E27E3
:101E5200000E6F237023CDD703D07B6B7C6B8189FF
:101E62006EC500F06FC501F070C502F0010E6E275D
:101E7200000E6F23702300C0F6FF01C0F7FF02C0FF
:101E8200F8FF0900F5CF7DF5F9D08CC500F08DC5BE
:101E920001F0AFEF1DF08089E3D781852ED1808BD1
:101EA20081812BD1818329D1808D27D126D1808B2D
:101EB200808F23D171C5E9FF72C5EAFFEECF00F032
:101EC200EECF01F000C0E9FF01C0EAFFEECF88F5D6
:101ED200EECF89F571C5E9FF72C5EAFF020EEE2465
:101EE200006E000EEE20016E71C5E1FF72C5E2FFC9
:101EF20000C0E6FF01C0E6FF000E891902E1000EF4
:101F0200881904E1DE0E886F000E896F8A6B8B6B75
:101F12008A518825E96E8B518921EA6EEE520BE0D7
:101F2200010E8A25006E000E8B21016E00C08AF51B
:101F320001C08BF5EDD77B517C110AE08B517C5DA2
:101F420002E18A517B5D04E27BC58AF57CC58BF593
:101F52007F518B5D02E17E518A5D05E28A517E5F8F
:101F62008B517F5B02D07E6B7F6B80B716D07EC5B4
:101F720000F07FC501F0010E7E5F000E7F5B005016
:101F820001100BE06CC5E1FF6DC5E2FF200EE66EAD
:101F92006C4B6D2B8C4B8D2BEAD78AC502F08BC50F
:101FA20003F0010E8A5D006E000E8B59016E00C0B7
:101FB2008AF501C08BF50250031019E088C5E9FFCC
:101FC20089C5EAFF6CC5E1FF6DC5E2FFEECFE6FF12
:101FD2006C4B6D2B010E8825006E000E8921016E5F
:101FE20000C088F501C089F58C4B8D2BD6D780A710
:101FF20016D07EC500F07FC501F0010E7E5F000E97
:102002007F5B005001100BE06CC5E1FF6DC5E2FF84
:10201200200EE66E6C4B6D2B8C4B8D2BEAD795D533
:1020220071C5E9FF72C5EAFFEECF00F0EECF01F015
:1020320000C0E9FF01C0EAFFEECF7DF571C5E9FFFF
:1020420072C5EAFF020EEE24006E000EEE20016E53
:1020520071C5E1FF72C5E2FF00C0E6FF01C0E6FF05
:102062007D0E886F050E896F010E8A6F000E8B6FD1
:1020720062D7C00E8013000E81133FD07D51000A3B
:10208200D8B403D77D516C0AD8B405D77D514C0A18
:10209200D8B401D77D51660AD8B4FFD67D51450A1E
:1020A200D8B4FDD67D51650AD8B4FAD67D51670AF7
:1020B200D8B4F8D67D516F0AD8B4F6D67D51640AE9
:1020C200D8B4F4D67D51690AD8B4F0D67D51700ADD
:1020D200D8B4EDD67D51580AD8B4E9D67D51780AE4
:1020E200D8B4E6D67D51730AD8B4E4D67D51630ADA
:1020F20097E07D51750ABDE0B3D7000E8015006EE2
:102102008151070B016E00500110D8B452EF19F043
:1021120081A904D0060E7B6F000E7C6F71C5E9FFAA
:1021220072C5EAFFEECF00F0EECF01F000C0E9FF8A
:1021320001C0EAFFEECF82F5EECF83F5EECF84F554
:10214200EECF85F571C5E9FF72C5EAFF040EEE24F4
:10215200006E000EEE20016E71C5E1FF72C5E2FF56
:1021620000C0E6FF01C0E6FF046A056A066A076A64
:1021720082C500F083C501F084C502F085C503F075
:1021820078DC010ED8B0000E006E005205E0847FAC
:10219200030E8013000E8113866B876B82C500F0DD
:1021A20083C501F084C502F085C503F0046A056A9F
:1021B200066A076AA6EC0AF0000ED8A4010E006EA9
:1021C2000052D8B489D085C500F0016A026A036A58
:1021D200FF0E0016000E01167E0E005E000E015A62
:1021E20000C086F501C087F5010E005E000E015A9F
:1021F20000C086F501C087F5030E046E000E056E61
:1022020010DC00C086F501C087F50A0E046E000ED0
:10221200056E42EC0AF000C086F501C087F5800E1B
:102222000118026E800E025C02E1000E005C05E203
:10223200010E0501865F000E875B050186510008CD
:10224200946F64EC07F082C504F083C505F084C581
:1022520006F085C507F0ADEC01F000C088F501C0BD
:1022620089F502C08AF503C08BF5000E046E000EDC
:10227200056E000E066E7F0E076E88C500F089C5DA
:1022820001F08AC502F08BC503F03AEC0DF0010EA5
:10229200D8B0000E006E005205E0010E865F000EFF
:1022A200875B1AD0000E046E000E056E200E066EBD
:1022B200820E076E88C500F089C501F08AC502F05A
:1022C2008BC503F03AEC0DF0000ED8B0010E006E93
:1022D200005202E0864B872B800E006E800E87191B
:1022E200005C02E18651000803E3010E7D6F02D01B
:1022F20086C57DF581B118D081A315D0800E8719CE
:10230200006E7F0E005C02E1FC0E865D0BE3800E28
:102312008719006E800E7C19005C02E17B51865D9C
:1023220001E201D001D0EFD37B517C1106E081A301
:1023320004D0010E7B5F000E7C5B7C51000802E141
:102342007B51080803E2080E7D6F02D07BC57DF544
:1023520082C500F083C501F084C502F085C503F093
:10236200046A056A066A076AA6EC0AF0000ED8A497
:10237200010E006E0052D8B44BD186C594F564ECC0
:1023820007F000C004F001C005F002C006F003C06F
:1023920007F082C500F083C501F084C502F085C54F
:1023A20003F0A7EC06F000C082F501C083F502C07D
:1023B20084F503C085F505017D510008946F64EC36
:1023C20007F000C004F001C005F002C006F003C02F
:1023D20007F082C500F083C501F084C502F085C50F
:1023E20003F0A7EC06F000C08EF501C08FF502C025
:1023F20090F503C091F58EC582F58FC583F590C522
:1024020084F591C585F58EC500F08FC501F090C5A4
:1024120002F091C503F00CEC06F076EC04F000C07B
:1024220004F001C005F002C006F003C007F08EC53B
:1024320000F08FC501F090C502F091C503F073EC76
:1024420004F0000E046E000E056E000E066E7E0E87
:10245200076E3AEC0DF0000ED8B0010E006E00527D
:102462001AE082C500F083C501F084C502F085C57B
:1024720003F0000E046E000E056E000E066E7E0E58
:10248200076E3DEC02F000C082F501C083F502C088
:1024920084F503C085F582C500F083C501F084C5CB
:1024A20002F085C503F00CEC06F005017D51010F29
:1024B200096E0A6A000E0A2209C004F00AC005F079
:1024C200000E0ABEFF0E066E076E04360490053635
:1024D20006360736043604900536063607368C0E65
:1024E2000424F66E4F0E0520F76E000E0620F86EDD
:1024F2000900F5CF05F00900F5CF06F00900F5CF88
:1025020007F00900F5CF08F00850035C08E1075016
:10251200025C05E10650015C02E10550005C1EE32D
:10252200050182C500F083C501F084C502F085C5AE
:1025320003F0CD0E046ECC0E056E4C0E066E7B0EB5
:10254200076EADEC01F000C082F501C083F502C058
:1025520084F503C085F5864B872B5AD082C500F0DF
:1025620083C501F084C502F085C503F00CEC06F0CA
:102572007DC504F0000E056E066E076E04360490EB
:102582000536063607360436049005360636073613
:102592008C0E0424F66E4F0E0520F76E000E0620F8
:1025A200F86E0900F5CF05F00900F5CF06F0090035
:1025B200F5CF07F00900F5CF08F00850035C08E1F9
:1025C2000750025C05E10650015C02E10550005C27
:1025D2001FE2050182C500F083C501F084C502F047
:1025E20085C503F0000E046E000E056E200E066E09
:1025F200820E076EADEC01F000C082F501C083F5DA
:1026020002C084F503C085F5010E865F000E875B6C
:10261200050181A393D081B791D0800E000A006E8C
:10262200800E7C19005C02E17B510A0804E20A0E6A
:102632007B6F000E7C6F82C500F083C501F084C5FC
:1026420002F085C503F00CEC06F000C088F501C06D
:1026520089F502C08AF503C08BF5885189118A1168
:102662008B1142E00A0E046E000E056E066E076EB6
:1026720088C500F089C501F08AC502F08BC503F058
:10268200BDEC0AF008C000F009C001F00AC002F077
:102692000BC003F0000E046E031808E10450021888
:1026A20005E10450011802E10050000A1DE1010E8B
:1026B2007B5F000E7C5B0A0E046E000E056E066EDA
:1026C200076E88C500F089C501F08AC502F08BC586
:1026D20003F0BDEC0AF000C088F501C089F502C024
:1026E2008AF503C08BF5B9D7800E7C19006E800E77
:1026F200005C02E17D517B5D21E27B517D5D946F47
:1027020064EC07F000C004F001C005F002C006F05E
:1027120003C007F082C500F083C501F084C502F052
:1027220085C503F0A7EC06F000C082F501C083F571
:1027320002C084F503C085F57BC57DF5050E050154
:102742007B25006E000E7C21016E00507E5F0150E1
:102752007F5B7B517C1103E181B701D004D0010E74
:102762007E5F000E7F5B030E8015006E81C501F057
:10277200000E01160050011004E0010E7E5F000EF3
:102782007F5B80A539D080A312D080A103D02D0E0B
:10279200736F02D02B0E736F6CC5E1FF6DC5E2FF44
:1027A20073C5E6FF6C4B6D2B8C4B8D2B0CD080A12F
:1027B2000AD06CC5E1FF6DC5E2FF200EE66E6C4BE0
:1027C2006D2B8C4B8D2B800E006E800E7F19005C62
:1027D20002E17E5100080FE26CC5E1FF6DC5E2FF28
:1027E200300EE66E6C4B6D2B8C4B8D2B010E7E5F8B
:1027F200000E7F5BE8D73AD080B718D0800E006E0B
:10280200800E7F19005C02E17E5100080FE26CC568
:10281200E1FF6DC5E2FF200EE66E6C4B6D2B8C4B1B
:102822008D2B010E7E5F000E7F5BE8D780A312D056
:1028320080A103D02D0E746F02D02B0E746F6CC565
:10284200E1FF6DC5E2FF74C5E6FF6C4B6D2B8C4B4F
:102852008D2B0CD080A10AD06CC5E1FF6DC5E2FFC3
:10286200200EE66E6C4B6D2B8C4B8D2B82C500F0CF
:1028720083C501F084C502F085C503F00CEC06F0B7
:1028820000C088F501C089F502C08AF503C08BF546
:102892007DC500F0000E016E026E036E00360090E0
:1028A2000136023603360036009001360236033610
:1028B2008C0E0024F66E4F0E0120F76E000E0220E1
:1028C200F86E0900F5CF04F00900F5CF05F0090014
:1028D200F5CF06F00900F5CF07F088C500F089C5ED
:1028E20001F08AC502F08BC503F0BDEC0AF0300E90
:1028F20000266CC5E1FF6DC5E2FF00C0E6FF6C4B30
:102902006D2B8C4B8D2B7B517C1103E181B701D058
:102912006FD06CC5E1FF6DC5E2FF2E0EE66E6C4B0B
:102922006D2B8C4B8D2B7D517B5F000E7C5B7D5321
:102932004DE07D077DC500F0000E016E026E036E54
:10294200003600900136023603360036009001361A
:10295200023603368C0E0024F66E4F0E0120F76EFF
:10296200000E0220F86E0900F5CF04F00900F5CF41
:1029720005F00900F5CF06F00900F5CF07F088C58C
:1029820000F089C501F08AC502F08BC503F0BDECE9
:102992000AF00A0E046E000E056E066E076EBDEC9E
:1029A2000AF008C000F009C001F00AC002F00BC032
:1029B20003F0300E00266CC5E1FF6DC5E2FF00C0DA
:1029C200E6FF6C4B6D2B8C4B8D2BB1D77B517C1161
:1029D2000FE06CC5E1FF6DC5E2FF300EE66E6C4B99
:1029E2006D2B8C4B8D2B010E7B5F000E7C5BEED72B
:1029F20080AB0BD06CC5E1FF6DC5E2FF450EE66E04
:102A02006C4B6D2B8C4B8D2B0AD06CC5E1FF6DC5C9
:102A1200E2FF650EE66E6C4B6D2B8C4B8D2B800EA0
:102A22008719006E800E005C02E1000E865D11E2E5
:102A320086510008866F8751000E87576CC5E1FFEB
:102A42006DC5E2FF2D0EE66E6C4B6D2B8C4B8D2B04
:102A52000AD06CC5E1FF6DC5E2FF2B0EE66E6C4B32
:102A62006D2B8C4B8D2B0A0E046E000E056E86C5E7
:102A720000F087C501F042EC0AF0300E00266CC56A
:102A8200E1FF6DC5E2FF00C0E6FF05016C4B6D2B57
:102A92008C4B8D2B0A0E046E000E056E86C500F05F
:102AA20087C501F042EC0AF008C000F009C001F04D
:102AB200300E00266CC5E1FF6DC5E2FF00C0E6FFE7
:102AC20005016C4B6D2B8C4B8D2B80A71AD0800E81
:102AD200006E800E7F19005C02E17E51000811E257
:102AE2006CC5E1FF6DC5E2FF200EE66E6C4B6D2BEF
:102AF2008C4B8D2B010E7E5F000E7F5B7E517F1112
:102B0200EFE1A6EF0DF081A3F3D0800E8719006EDE
:102B1200800E005C02E1000E865D0AE2010E865D17
:102B2200006E000E8759016E00507B5F01507C5B86
:102B320082C500F083C501F084C502F085C503F0AB
:102B42000CEC06F000C088F501C089F502C08AF5D8
:102B520003C08BF5010E7D6F7D510A0A34E07DC5FD
:102B620000F0000E016E026E036E00360090013618
:102B720002360336003600900136023603368C0EDA
:102B82000024F66E4F0E0120F76E000E0220F86E42
:102B92000900F5CF01F00900F5CF02F00900F5CFE9
:102BA20003F00900F5CF04F004508B5D08E10350F7
:102BB2008A5D05E10250895D02E10150885D01E212
:102BC20002D07D2BC9D77D517B5D926F000E7C595F
:102BD200936F92C57BF593C57CF588C500F089C5D6
:102BE20001F08AC502F08BC503F076EC04F000C058
:102BF20004F001C005F002C006F003C007F082C570
:102C020000F083C501F084C502F085C503F073ECC2
:102C120004F000C08EF501C08FF502C090F503C02C
:102C220091F592C594F564EC07F08EC504F08FC55A
:102C320005F090C506F091C507F0ADEC01F0000E6D
:102C4200046E000E056E000E066E7E0E076E3DECE3
:102C520002F00CEC06F000C088F501C089F502C054
:102C62008AF503C08BF57B517C1142E00A0E046E9B
:102C7200000E056E066E076E88C500F089C501F06C
:102C82008AC502F08BC503F0BDEC0AF008C000F063
:102C920009C001F00AC002F00BC003F0000E046E7E
:102CA200031808E10450021805E10450011802E17A
:102CB2000050000A1DE10A0E046E000E056E066E3B
:102CC200076E88C500F089C501F08AC502F08BC580
:102CD20003F0BDEC0AF000C088F501C089F502C01E
:102CE2008AF503C08BF5010E7B5F000E7C5BBBD7C0
:102CF200800E006E800E7C19005C02E17B510C0894
:102D020016E37BC594F589EC04F082C504F083C513
:102D120005F084C506F085C507F03DEC02F000C061
:102D220082F501C083F502C084F503C085F582C532
:102D320000F083C501F084C502F085C503F0046A82
:102D4200056A066A076AA6EC0AF0000ED8A4010E0C
:102D5200006E0052D8B477D082C500F083C501F06E
:102D620084C502F085C503F00CEC06F0000E046E7B
:102D7200031808E10450021805E10450011802E1A9
:102D82000050000A60E1800E006E800E8719005C20
:102D920002E18651010857E286C594F564EC07F01A
:102DA20000C004F001C005F002C006F003C007F045
:102DB20082C500F083C501F084C502F085C503F029
:102DC200A7EC06F05F0E046E700E056E090E066E1D
:102DD200810E076E3AEC0DF0010ED8B0000E006EB7
:102DE200005206E0090E0501865F000E875B05D0E2
:102DF2000501080E865F000E875B86C594F564ECBC
:102E020007F000C004F001C005F002C006F003C0E4
:102E120007F082C500F083C501F084C502F085C5C4
:102E220003F0A7EC06F00CEC06F000C088F501C038
:102E320089F502C08AF503C08BF50501826B836BAD
:102E4200846B856B38D082C500F083C501F084C5E0
:102E520002F085C503F00CEC06F000C088F501C055
:102E620089F502C08AF503C08BF588C500F089C5D3
:102E720001F08AC502F08BC503F076EC04F000C0C5
:102E820004F001C005F002C006F003C007F082C5DD
:102E920000F083C501F084C502F085C503F073EC30
:102EA20004F000C082F501C083F502C084F503C0BE
:102EB20085F5866B876B010E7D6F7D510A0A34E0C2
:102EC2007DC500F0000E016E026E036E00360090AA
:102ED20001360236033600360090013602360336DA
:102EE2008C0E0024F66E4F0E0120F76E000E0220AB
:102EF200F86E0900F5CF01F00900F5CF02F00900E4
:102F0200F5CF03F00900F5CF04F004508B5D08E122
:102F120003508A5D05E10250895D02E10150885D3E
:102F220001E202D07D2BC9D77D517B25006E000EB8
:102F32007C21016E865100268751012200507E5F5E
:102F420001507F5B81B704D07B517C1101E104D039
:102F5200010E7E5F000E7F5B030E8015006E81C541
:102F620001F0000E01160050011004E0010E7E5F18
:102F7200000E7F5B80A539D080A312D080A103D040
:102F82002D0E756F02D02B0E756F6CC5E1FF6DC5EE
:102F9200E2FF75C5E6FF6C4B6D2B8C4B8D2B0CD075
:102FA20080A10AD06CC5E1FF6DC5E2FF200EE66E7E
:102FB2006C4B6D2B8C4B8D2B800E006E800E7F190F
:102FC200005C02E17E5100080FE26CC5E1FF6DC5B5
:102FD200E2FF300EE66E6C4B6D2B8C4B8D2B010E8F
:102FE2007E5F000E7F5BE8D73AD080B718D0800EA4
:102FF200006E800E7F19005C02E17E5100080FE234
:103002006CC5E1FF6DC5E2FF200EE66E6C4B6D2BC9
:103012008C4B8D2B010E7E5F000E7F5BE8D780A369
:1030220012D080A103D02D0E766F02D02B0E766FB8
:103032006CC5E1FF6DC5E2FF76C5E6FF6C4B6D2BFB
:103042008C4B8D2B0CD080A10AD06CC5E1FF6DC5D5
:10305200E2FF200EE66E6C4B6D2B8C4B8D2B7DC5EB
:1030620000F07D0700524CE07DC500F0000E016EBD
:10307200026E036E003600900136023603360036C9
:1030820000900136023603368C0E0024F66E4F0E87
:103092000120F76E000E0220F86E0900F5CF04F051
:1030A2000900F5CF05F00900F5CF06F00900F5CFCC
:1030B20007F088C500F089C501F08AC502F08BC50A
:1030C20003F0BDEC0AF00A0E046E000E056E066EE9
:1030D200076EBDEC0AF008C000F009C001F00AC09A
:1030E20002F00BC003F0300E00266CC5E1FF6DC587
:1030F200E2FF00C0E6FF6C4B6D2B8C4B8D2BAFD7E4
:10310200800E006E800E8719005C02E18651000875
:103112000FE26CC5E1FF6DC5E2FF300EE66E6C4B4F
:103122006D2B8C4B8D2B010E865F000E875BE8D7D3
:10313200800E000A006E800E7C19005C02E17B5159
:10314200080803E2080E7D6F02D07BC57DF57D5134
:103152007B5F000E7C5B7D5303E181B701D00AD017
:103162006CC5E1FF6DC5E2FF2E0EE66E6C4B6D2B5A
:103172008C4B8D2B7DC594F564EC07F082C504F071
:1031820083C505F084C506F085C507F0ADEC01F0F6
:1031920079EC0CF000C088F501C089F502C08AF50F
:1031A20003C08BF57D534DE07D077DC500F0000E19
:1031B200016E026E036E003600900136023603364F
:1031C200003600900136023603368C0E0024F66E6D
:1031D2004F0E0120F76E000E0220F86E0900F5CFA7
:1031E20004F00900F5CF05F00900F5CF06F009005B
:1031F200F5CF07F088C500F089C501F08AC502F055
:103202008BC503F0BDEC0AF00A0E046E000E056ECB
:10321200066E076EBDEC0AF008C000F009C001F0AE
:103222000AC002F00BC003F0300E00266CC5E1FFAD
:103232006DC5E2FF00C0E6FF6C4B6D2B8C4B8D2BF6
:10324200B1D77B517C110FE06CC5E1FF6DC5E2FF88
:10325200300EE66E6C4B6D2B8C4B8D2B010E7B5F13
:10326200000E7C5BEED780A71AD0800E006E800E17
:103272007F19005C02E17E51000811E26CC5E1FF9A
:103282006DC5E2FF200EE66E6C4B6D2B8C4B8D2BC9
:10329200010E7E5F000E7F5B7E517F11EFE1A6EF94
:1032A2000DF0C00E8015016E81C502F0000E0216EF
:1032B200000E021802E1000E0118D8A480D080A9E5
:1032C20027D071C5E9FF72C5EAFFEECF00F0EECF5D
:1032D20001F000C0E9FF01C0EAFFEECF88F5EECFB2
:1032E20089F5EECF8AF5EECF8BF571C5E9FF72C590
:1032F200EAFF040EEE24006E000EEE20016E71C590
:10330200E1FF72C5E2FF00C0E6FF01C0E6FF2FD079
:1033120071C5E9FF72C5EAFFEECF00F0EECF01F012
:1033220000C0E9FF01C0EAFFEECF00F0EECF01F0EE
:10333200000E01BEFF0E026E036E00C088F501C0D2
:1033420089F502C08AF503C08BF571C5E9FF72C524
:10335200EAFF020EEE24006E000EEE20016E71C531
:10336200E1FF72C5E2FF00C0E6FF01C0E6FF800E8A
:103372008B19006E800E005C08E1000E8A5D05E18B
:10338200000E895D02E1000E885D18E2030E8013D3
:10339200000E8113006A016A026A036A8851005EA4
:1033A2008951015A8A51025A8B51035A00C088F539
:1033B20001C089F502C08AF503C08BF54ED080A901
:1033C20027D071C5E9FF72C5EAFFEECF00F0EECF5C
:1033D20001F000C0E9FF01C0EAFFEECF88F5EECFB1
:1033E20089F5EECF8AF5EECF8BF571C5E9FF72C58F
:1033F200EAFF040EEE24006E000EEE20016E71C58F
:10340200E1FF72C5E2FF00C0E6FF01C0E6FF25D082
:1034120071C5E9FF72C5EAFFEECF00F0EECF01F011
:1034220000C0E9FF01C0EAFFEECF88F5EECF89F5D3
:10343200000E8A6F8B6F71C5E9FF72C5EAFF020E3B
:10344200EE24006E000EEE20016E71C5E1FF72C522
:10345200E2FF00C0E6FF01C0E6FF000E7C1902E1B8
:10346200000E7B190FE1000E006E8B1908E100506F
:103472008A1905E10050891902E18851000A02E126
:103482007B4B7C2BC00E8015006E00C005F0AED0C9
:10349200010E7D6F7D510A0A34E07DC500F0000EF9
:1034A200016E026E036E003600900136023603365C
:1034B200003600900136023603368C0E0024F66E7A
:1034C2004F0E0120F76E000E0220F86E0900F5CFB4
:1034D20001F00900F5CF02F00900F5CF03F0090071
:1034E200F5CF04F004508B5D08E103508A5D05E1DD
:1034F2000250895D02E10150885D01E202D07D2B1C
:10350200C9D782D0010E7D6F7D51080A34E07DC596
:1035120000F0000E016E026E036E0036009001365E
:103522000236033600360090013602360336B40EF8
:103532000024F66E4F0E0120F76E000E0220F86E88
:103542000900F5CF01F00900F5CF02F00900F5CF2F
:1035520003F00900F5CF04F004508B5D08E103503D
:103562008A5D05E10250895D02E10150885D01E258
:1035720002D07D2BC9D748D0010E7D6F7D510C0A38
:1035820034E07DC500F0000E016E026E036E00365F
:1035920000900136023603360036009001360236BC
:1035A20003365C0E0024F66E4F0E0120F76E000EFD
:1035B2000220F86E0900F5CF01F00900F5CF02F004
:1035C2000900F5CF03F00900F5CF04F004508B5D3C
:1035D20008E103508A5D05E10250895D02E1015074
:1035E200885D01E202D07D2BC9D70ED00550000ABA
:1035F200D8B44ED70550C00AD8B44AD70550800A6D
:1036020081E00550400AB8E0800E006E800E7C1901
:10361200005C02E17B517D5D03E27BC57DF50DD04F
:10362200800E7C19006E800E005C02E17D517B5D94
:1036320004E27DC57BF5000E7C6F7E517F110EE0AA
:10364200030E8015006E81C501F0000E01160050B8
:10365200011004E0010E7E5F000E7F5B800E7C197C
:10366200006E800E7F19005C02E17E517B5D05E2F7
:103672007B517E5F7C517F5B02D07E6B7F6BC40E81
:103682008015016E8151080B026E0250080A02E198
:10369200400E011808E17E517F1104E0010E7E5FA9
:1036A200000E7F5B1CD0C00E8015016E8151080B8D
:1036B200026E0250080A02E1800E011810E1800E2B
:1036C200006E800E7F19005C02E17E51020805E265
:1036D200020E7E5F000E7F5B02D07E6B7F6B80A549
:1036E2005DD080A312D080A103D02D0E776F02D0BF
:1036F2002B0E776F6CC5E1FF6DC5E2FF77C5E6FF64
:103702006C4B6D2B8C4B8D2B34D080A10BD06CC5A8
:10371200E1FF6DC5E2FF200EE66E6C4B6D2B8C4B0C
:103722008D2B27D0C00E8015016E8151080B026EC1
:103732000250080A02E1800E01181BE16CC5E1FF8C
:103742006DC5E2FF300EE66E6C4B6D2B8C4B8D2BF4
:1037520080AB03D0580E786F02D0780E786F6CC5AC
:10376200E1FF6DC5E2FF78C5E6FF6C4B6D2B8C4B1C
:103772008D2B7E517F1111E06CC5E1FF6DC5E2FF1B
:10378200300EE66E6C4B6D2B8C4B8D2B010E7E5FDB
:10379200000E7F5B7E517F11EFE174D07E517F116D
:1037A20013E080B711D06CC5E1FF6DC5E2FF200EBA
:1037B200E66E6C4B6D2B8C4B8D2B010E7E5F000EDB
:1037C2007F5B7E517F11EFE180A312D080A103D0F5
:1037D2002D0E796F02D02B0E796F6CC5E1FF6DC58E
:1037E200E2FF79C5E6FF6C4B6D2B8C4B8D2B0CD019
:1037F20080A10AD06CC5E1FF6DC5E2FF200EE66E26
:103802006C4B6D2B8C4B8D2BC00E8015016E815134
:10381200080B026E0250080A02E1400E01180BE189
:103822006CC5E1FF6DC5E2FF300EE66E6C4B6D2B91
:103832008C4B8D2B27D0C00E8015016E8151080B49
:10384200026E0250080A02E1800E01181BE16CC5EB
:10385200E1FF6DC5E2FF300EE66E6C4B6D2B8C4BBB
:103862008D2B80AB03D0580E7A6F02D0780E7A6F10
:103872006CC5E1FF6DC5E2FF7AC5E6FF6C4B6D2BAF
:103882008C4B8D2B800E006E800E7C19005C02E149
:103892007B517D5D0BE26CC5E1FF6DC5E2FF300E31
:1038A200E66E6C4B6D2B8C4B8D2BECD77BC500F0F1
:1038B2007CC501F0010E7B5F000E7C5B00500110A5
:1038C200D8B42AD1C00E8015006E00C08EF50AD180
:1038D2007BC500F07CC501F0000E7CBFFF0E026EBE
:1038E200036E003600900136023603360036009031
:1038F2000136023603368C0E0024F66E4F0E01207E
:10390200F76E000E0220F86E0900F5CF04F00900F0
:10391200F5CF05F00900F5CF06F00900F5CF07F065
:1039220088C500F089C501F08AC502F08BC503F095
:10393200BDEC0AF00A0E046E000E056E066E076EEE
:10394200BDEC0AF008C000F009C001F00AC002F0A4
:103952000BC003F0300E00247D6FD3D080AB45D076
:103962007BC500F07CC501F0000E7CBFFF0E026E2D
:10397200036E0036009001360236033600360090A0
:10398200013602360336B40E0024F66E4F0E0120C5
:10399200F76E000E0220F86E0900F5CF04F0090060
:1039A200F5CF05F00900F5CF06F00900F5CF07F0D5
:1039B20088C500F089C501F08AC502F08BC503F005
:1039C200BDEC0AF00F0E0016000E011602160316C9
:1039D200D40E0024F66E4F0E0120F76E000E022068
:1039E200F86E0900F5CF7DF544D07BC500F07CC5AB
:1039F20001F0000E7CBFFF0E026E036E00360090D7
:103A0200013602360336003600900136023603369E
:103A1200B40E0024F66E4F0E0120F76E000E022047
:103A2200F86E0900F5CF04F00900F5CF05F00900A2
:103A3200F5CF06F00900F5CF07F088C500F089C57B
:103A420001F08AC502F08BC503F0BDEC0AF00F0E3F
:103A52000016000E011602160316E50E0024F66E7D
:103A62004F0E0120F76E000E0220F86E0900F5CF0E
:103A72007DF547D07BC500F07CC501F0000E7CBF10
:103A8200FF0E026E036E00360090013602360336D8
:103A9200003600900136023603365C0E0024F66EC4
:103AA2004F0E0120F76E000E0220F86E0900F5CFCE
:103AB20004F00900F5CF05F00900F5CF06F0090082
:103AC200F5CF07F088C500F089C501F08AC502F07C
:103AD2008BC503F0BDEC0AF0070E00147D6F300EAB
:103AE2007D270FD08E51000AD8B4F2D68E51C00A6B
:103AF200D8B4EED68E51800AD8B430D78E51400A4F
:103B0200B9E06CC5E1FF6DC5E2FF7DC5E6FF6C4B18
:103B12006D2B8C4B8D2BCAD680A71AD0800E006ECF
:103B2200800E7F19005C02E17E51000811E26CC533
:103B3200E1FF6DC5E2FF200EE66E6C4B6D2B8C4BE8
:103B42008D2B010E7E5F000E7F5B7E517F11EFE1B8
:0E3B5200A6EF0DF08CC500F08DC501F012003D
:103B6000086A096A100E0C6E0134083609360450D2
:103B7000085E0550D8A0053C095ED8B007D00450B7
:103B800008260550D8B0053C0926D89000360136E5
:063B90000C2EEAD7120022
:103B960001014C916CC594F533EC0CF04C8112008C
:0A3BA600030E0D6E0D2EFED7120067
:103BB00010D0800E05015F6F1AD0C00E5F6F17D056
:103BC000940E5F6F14D0D40E5F6F11D0800E5F6FB4
:103BD0000ED005015F51010AECE05F51020AEDE0F1
:103BE0005F51030AEDE05F51040AEDE0EFD7600595
:103BF000006E5F51002600C05FF500C094F533EC05
:103C00000CF04C910501636B63516125E96E000E68
:103C10006221EA6EEE520CE063516125E96E000EFE
:103C20006221EA6EEECF6CF5B6DF0501632BECD7AF
:063C300001014C811200AD
:103C3600640E05016A6F050E6B6F5FC56CF560C596
:103C46006DF561C56EF562C56FF563C570F56A0EF3
:103C5600716F050E726FA1EC0DF000C068F501C022
:103C660069F500505F25E16E01506021E26EE66A5B
:0A3C760068C500F069C501F01200F6
:103C800005015F6B616B626B100E636F040E625D0A
:103C90002BE2F00E836E120E006E000E016E830E8C
:103CA0000024E16E0F0E0120E26E631D006E00C065
:103CB000E6FF62EC04F062EC04F00F0E8314006E79
:103CC00000C060F500520AE061C55FF5605304E092
:103CD0006033609F5F2BFAD7040E626F6337639186
:0E3CE000040E6127622BD2D75FC500F01200E0
:103CEE000501636B050E635D0AE263516125E16EAA
:103CFE00000E6221E26E200EE66E632BF3D7635147
:103D0E006125E16E000E6221E26EE66A6307635181
:103D1E006125646F000E6221656F0A0E046E000E3F
:103D2E00056E5FC500F060C501F013DF08C000F03E
:103D3E0009C001F0300E002664C5E1FF65C5E2FF43
:103D4E0000C0E6FF0A0E046E000E056E5FC500F0A1
:103D5E0060C501F0FEDE00C05FF501C060F5000E2B
:103D6E00011802E1000E001801E102D06307CFD75F
:023D7E00120031
:0E3D8000ACB202D00000FCD75FC5ADFF120050
:103D8E0055C502F056C503F058C500F059C501F0EF
:103D9E00010E0501585F000E595B0050011009E03D
:103DAE0002C0E1FF03C0E2FF57C5E6FF024A032A45
:0C3DBE00EBD755C500F056C501F012000F
:103DCA0059C500F005015907005228E055C5E9FF19
:103DDA0056C5EAFFEE50000A0CE055C5E9FF56C584
:103DEA00EAFF57C5D9FF58C5DAFFEE50DE1801E1E0
:103DFA000FD055C5E9FF56C5EAFF57C5D9FF58C5C3
:103E0A00DAFFDE50EE5C006E016A000E015A08D03D
:103E1A000501554B562B574B582BD2D7006A016ACE
:023E2A00120084
:103E2C0029DF00C055F50F0E8314006E02E0B5DEDD
:083E3C00FAD755C500F0120091
:103E440010D0800E0501556F1AD0C00E556F17D0D3
:103E5400940E556F14D0D40E556F11D0800E556F3B
:103E64000ED005015551010AECE05551020AEDE06E
:103E74005551030AEDE05551040AEDE0EFD756051C
:103E8400006E5551002600C055F501014C8100C05B
:103E940094F533EC0CF04C9157C594F533EC0CF0DD
:043EA4004C8112003B
:103EA80055C556F50501565100082CE2010E946FD0
:103EB80033EC0CF05F0E05015F6F010E606FF60EBC
:103EC800616F4F0E626F000E636F56C564F5AFDE0B
:103ED800010E5F6F010E606F5F0E616F010E626F02
:103EE80063DE060E0B6E130E0C6EAD0E0D6E0D2EF0
:103EF800FED70C2EFCD70B2EFAD7000000000501C8
:103F08005607D0D75551000A2BE1010E946F33ECB8
:103F18000CF0010E05015F6F010E606FCF0E616F2F
:103F2800000E626F41DE020E05015F6F050E606FC5
:103F3800C00E616F000E626F37DE340E05015F6FD1
:103F48001BDF060E0B6E130E0C6EAD0E0D6E0D2ED6
:103F5800FED70C2EFCD70B2EFAD700000000D9D7BD
:023F6800120045
:103F6A0000C008F00B6A0C6A9E0E036E0A6A026AA7
:0E3F7A00016A006A020E0C6E32EC00F01200BA
:103F8800AECF01F0ABA202D0AB98AB8801C000F075
:023F9800120015
:103F9A0005015B6B5C6B55C55DF556C55EF5800E1C
:103FAA005619006E800E005C02E1000E555D0BE2B0
:103FBA00010E5B6F000E5C6F555100085D6F56C5B0
:103FCA005EF5000E5E575DC55FF55EC560F557C5C7
:103FDA0061F558C562F586DE060E596F000E5A6FF6
:103FEA00000E006E5A51005C02E15951000819E2B4
:103FFA0059515725E16E5A515821E26E010E595D09
:10400A00006E000E5A59016E00505725E96E015094
:10401A005821EA6EEECFE6FF010E595F000E5A5B99
:10402A00DFD757C5E1FF58C5E2FF200EE66E5B51A8
:10403A005C111AE0596B5A6B59515725E96E5A515E
:10404A005821EA6EEE50200A03E1594B5A2BF4D755
:10405A00010E595F000E5A5B59515725E16E5A51AC
:0A406A005821E26E2D0EE66E1200E2
:104074000501586B030E585D0AE258515625E16E4E
:10408400000E5721E26E200EE66E582BF3D75851DE
:104094005625E16E000E5721E26EE66A5807585124
:1040A4005625596F000E57215A6F0A0E046E55C5D6
:1040B40000F09EEC01F008C000F0300E002659C557
:1040C400E1FF5AC5E2FF00C0E6FF0A0E046E55C5C3
:1040D40000F09EEC01F000C055F50050000A01E12B
:0840E40002D05807DCD71200DE
:0A40EC00000E9EBA010E006E1200D5
:1040F600800E0101556F3D0E566F5F0E576F050E10
:10410600586F880E596F3F0E5A6F000E5B6F000E88
:104116005C6FEC0E4D6F400E4E6F000E4F6F000E33
:10412600506FFF0E516FFF0E526F000E536F000E51
:10413600546FAC8A900EAB6E948E949C9EAA03D05C
:08414600AECF00F0FBD7120020
:10414E00120E006E000E016E830E0024E16E0F0E35
:0A415E000120E26EFF0EE66E120073
:104168000900F5CFE6FF0006FBE10106F9E11200C0
:10417800B9DF0050010A55E1010E05015F6F080E15
:10418800606F410E616F010E626F0EDDF9DE00C0D7
:104198005DF1000E01015E6F5DC155F55EC156F51A
:1041A8005F0E0501576F010E586FF3DE010E5F6F4A
:1041B8000B0E606F5F0E616F010E626FF5DC800E93
:1041C800006E800E5E19005C02E15D5132080BE35F
:1041D800020E05015F6F010E606F820E616F000EA7
:1041E800626FE2DC8A80800E5E19006E800E005CD1
:1041F80002E1320E5D5D0BE3020E05015F6F010EF9
:10420800606F8A0E616F000E626FCEDC8A900D0EB1
:104218000C6EFB0E0D6E0D2EFED70C2EFCD700007B
:044228000000120080
:10422C000501476B486B496B4A6B4B6B4C6B4D6B89
:10423C004E6B4F6B506B516B526B536B546B010E3F
:10424C00946F33EC0CF000016F51000AD8A4ABD082
:10425C00010E05015F6F010E606F700E616F000E35
:10426C00626FA0DC0001926B0001040E925DD8B06D
:10427C0067D0D6DD00C054F522D0370E546F41D034
:10428C00340E546F3ED0310E546F3BD0380E546FF9
:10429C0038D0350E546F35D0320E546F32D0300EBC
:1042AC00546F2FD0390E546F2CD0360E546F29D03A
:1042BC00330E546F26D03D0E546F23D0D5D75451A6
:1042CC00010ADBE05451020ADBE05451030ADBE043
:1042DC005451050ADBE05451060ADBE05451070A3D
:1042EC00DBE05451080ADBE05451090ADBE054517D
:1042FC000A0ADBE054510B0ADBE054510C0ADBE0F8
:10430C00DDD7300E545D1BE35451390818E3470ECA
:10431C00E16E010EE26E00019251E126D8B0E22A64
:10432C0054C5E6FF020E0501556F00019251010FB5
:10433C000501566F2A0E576F7FDD0001922B94D723
:10434C00040E0B6E8E0E0C6E120E0D6E0D2EFED715
:10435C000C2EFCD70B2EFAD70000010E0501946F22
:10436C0033EC0CF0010E05015F6F010E606FA90EAE
:10437C00616F000E626F16DC060E0B6E130E0C6E68
:10438C00AD0E0D6E0D2EFED70C2EFCD70B2EFAD7C4
:10439C0000000000010E0501946F33EC0CF0010ECF
:1043AC0000016F6FBAD36F51010AD8A41AD1010E54
:1043BC0005015F6F010E606F930E616F000E626FEF
:1043CC00D8EC1DF00001926B0001040E925DD8B088
:1043DC006CD026DD00C054F522D0370E546F41D07E
:1043EC00340E546F3ED0310E546F3BD0380E546F98
:1043FC0038D0350E546F35D0320E546F32D0300E5B
:10440C00546F2FD0390E546F2CD0360E546F29D0D8
:10441C00330E546F26D03D0E546F23D0D5D7545144
:10442C00010ADBE05451020ADBE05451030ADBE0E1
:10443C005451050ADBE05451060ADBE05451070ADB
:10444C00DBE05451080ADBE05451090ADBE054511B
:10445C000A0ADBE054510B0ADBE054510C0ADBE096
:10446C00DDD7300E545D1BE35451390818E3A40E0C
:10447C00E16E000EE26E00019251E126D8B0E22A04
:10448C0054C5E6FF020E0501556F00019251010F54
:10449C000501566F2A0E576FCFDC0001922B0501D8
:1044AC0054513D0A01E101D08FD70501A40E556F7F
:1044BC00000E566F470E576F010E586F040E596F52
:1044CC007EDC000E011802E1000E001823E1020E42
:1044DC0005015F6F010E606F630E616F000E626FFE
:1044EC00D8EC1DF0060E0B6E130E0C6EAD0E0D6E91
:1044FC000D2EFED70C2EFCD70B2EFAD70000000089
:10450C00010E0501946F33EC0CF0020E00016F6F7D
:10451C002A6A66D0020E05015F6F010E606F2B0ECA
:10452C00616F000E626FD8EC1DF0060E0B6E130E51
:10453C000C6EAD0E0D6E0D2EFED70C2EFCD70B2E69
:10454C00FAD700000000010E0501946F33EC0CF05B
:10455C00A40E0501556F000E566F576B050E586F64
:10456C00000E596F0EDC0001926B2A2A2A500308A8
:10457C0024E3010E0501946F33EC0CF0020E0501DF
:10458C005F6F040E606F150E616F000E626FD8ECDA
:10459C001DF0080E0B6E9D0E0C6E050E0D6E0D2E85
:1045AC00FED70C2EFCD70B2EFAD700000000010E04
:1045BC000501946F33EC0CF013D02A5004080AE375
:1045CC00030E2A5C0501556F3C0E5503F3CF55F5D0
:1045DC0065DC06D0050E2A5C03E30501556B5EDC39
:1045EC009CD200016F51020AD8A497D2010E05018A
:1045FC005F6F010E606F200E616F000E626FD8EC62
:10460C001DF081AE01D089D20BDC00C054F50052F4
:10461C00F8E01ED0070E546F3AD0040E546F37D00A
:10462C00010E546F34D0080E546F31D0050E546FF8
:10463C002ED0020E546F2BD0546B29D0090E546F10
:10464C0026D0060E546F23D0030E546F20D065D2A3
:10465C005451010ADFE05451020ADFE05451030ABD
:10466C00DFE05451050ADFE05451060ADFE05451F3
:10467C00070ADFE05451080ADFE05451090ADEE072
:10468C0054510A0ADEE054510B0ADEE0E0D754C55F
:10469C0000F065DC00C047F501C048F502C049F5E3
:1046AC0003C04AF554C555F55F0E566F010E576F92
:1046BC00DBDC020E556F00019251010F0501566FA4
:1046CC00300E5425576F22EC1FF0010E05015F6F61
:1046DC00010E606F390E616F000E626FD8EC1DF029
:1046EC0081AE01D01AD216EC1FF000C04FF500526B
:1046FC00F7E00DD02F0E4F6F17D0780E4F6F14D0F0
:10470C002D0E4F6F11D02B0E4F6F0ED006D24F5176
:10471C000D0AF0E04F510E0AF0E04F510F0AF0E095
:10472C004F51100AF0E0F2D7020E556F020E000145
:10473C0092250501566F4FC557F522EC1FF0010E5F
:10474C0005015F6F010E606F540E616F000E626F9A
:10475C00D8EC1DF081AE01D0E0D116EC1FF000C0FA
:10476C0054F50052F7E01ED0070E546F3AD0040EE9
:10477C00546F37D0010E546F34D0080E546F31D0B3
:10478C00050E546F2ED0020E546F2BD0546B29D0C3
:10479C00090E546F26D0060E546F23D0030E546F9F
:1047AC0020D0BBD15451010ADFE05451020ADFE0A2
:1047BC005451030ADFE05451050ADFE05451060A54
:1047CC00DFE05451070ADFE05451080ADFE054518E
:1047DC00090ADEE054510A0ADEE054510B0ADEE00D
:1047EC00E0D754C500F0B5EC1FF000C04BF501C08C
:1047FC004CF502C04DF503C04EF5020E556F030E7D
:10480C00000192250501566F300E5425576F22EC8E
:10481C001FF05FD14BC504F04CC505F04DC506F03B
:10482C004EC507F047C500F048C501F049C502F078
:10483C004AC503F0A7EC06F000C050F501C051F5D5
:10484C0002C052F503C053F5046A056A066A076A8A
:10485C004BC500F04CC501F04DC502F04EC503F040
:10486C00A6EC0AF0010ED8A4000E006E005211E066
:10487C00010E0501946F33EC0CF0020E05015F6F15
:10488C00060E606F5D0E616F000E626FD8EC1DF04E
:10489C002BD0020E0501556F040E00019225050167
:1048AC00566F3D0E576F22EC1FF05F0E05015F6FC8
:1048BC00010E606F0A0E616F500E626F000E636F17
:1048CC0050C564F551C565F552C566F553C567F518
:1048DC001BEC1EF0020E5F6F090E606F5F0E616FB6
:1048EC00010E626FD8EC1DF005D147C500F048C52C
:1048FC0001F049C502F04AC503F04BC504F04CC5A4
:10490C0005F04DC506F04EC507F0ADEC01F000C04A
:10491C0050F501C051F502C052F503C053F5010E1C
:10492C0005015F6F010E606F420E616F000E626FCA
:10493C00D8EC1DF0020E0501556F040E00019225F6
:10494C000501566F3D0E576F22EC1FF05F0E0501EF
:10495C005F6F010E606F050E616F500E626F000E7F
:10496C00636F50C564F551C565F552C566F553C501
:10497C0067F51BEC1EF0020E5F6F090E606F5F0E89
:10498C00616F010E626FD8EC1DF0B4D04BC504F012
:10499C004CC505F04DC506F04EC507F047C500F0F7
:1049AC0048C501F049C502F04AC503F073EC04F0A8
:1049BC0000C050F501C051F502C052F503C053F5CB
:1049CC00010E05015F6F010E606F4B0E616F000EE3
:1049DC00626FD8EC1DF0020E0501556F040E00013C
:1049EC0092250501566F3D0E576F22EC1FF05F0E9E
:1049FC0005015F6F010E606F140E616F500E626FD8
:104A0C00000E636F50C564F551C565F552C566F56A
:104A1C0053C567F51BEC1EF0020E5F6F090E606F3D
:104A2C005F0E616F010E626FD8EC1DF063D047C54D
:104A3C0000F048C501F049C502F04AC503F04BC56A
:104A4C0004F04CC505F04DC506F04EC507F03DEC25
:104A5C0002F000C050F501C051F502C052F503C080
:104A6C0053F5010E05015F6F010E606FB70E616F9C
:104A7C00000E626FD8EC1DF0020E0501556F040E8E
:104A8C00000192250501566F3D0E576F22EC1FF069
:104A9C005F0E05015F6F010E606F0F0E616F500EA0
:104AAC00626F000E636F50C564F551C565F552C554
:104ABC0066F553C567F51BEC1EF0020E5F6F090E11
:104ACC00606F5F0E616F010E626FD8EC1DF012D03B
:104ADC0024D005014F512F0AD8B49CD64F51780AD7
:104AEC00D8B403D74F512D0AD8B450D74F512B0AF5
:104AFC009EE0EED7060E0B6E130E0C6EAD0E0D6E09
:104B0C0005010D2EFDD70C2EFBD70B2EF9D700006F
:0C4B1C000000010E946F33EC0CF012004E
:104B28009492949094949398939A939C829282905E
:104B3800819C819A819882946AEC04F06AEC04F072
:104B48006AEC04F081888284828262EC04F08292AA
:104B58006AEC04F0828262EC04F082926AEC04F05F
:104B6800828262EC04F082926AEC04F0829482827F
:104B780062EC04F082926AEC04F0828262EC04F047
:104B880082928198818C828262EC04F082926AEC33
:104B980004F0819C8284828262EC04F08292829486
:104BA800828262EC04F082926AEC04F0828262EC07
:104BB80004F082928284828262EC04F082926AEC2F
:104BC80004F08294828262EC04F08292818C818A61
:104BD80081888284828262EC04F082926AEC04F01A
:064BE80001014C811200E6
:104BEE000DEC28F0A7EC20F0B886B06A670EAF6E19
:104BFE00AC847BEC20F0820E0C6EDD0E0D6E0D2E55
:104C0E00FED70C2EFCD70000000087DF010E050139
:104C1E00946F33EC0CF00C0E0501946F33EC0CF02A
:104C2E009390938E9286010E05015F6F010E606F59
:104C3E00040E616F010E626FD8EC1DF081AE6DD067
:104C4E0081AE01D0FDD7010E0501946F33EC0CF04F
:104C5E001551030AD8B4156B152B1551010A17E11E
:104C6E00010E05015F6F010E606FF00E616F000E99
:104C7E00626FD8EC1DF0020E05015F6F010E606FC2
:104C8E00F90E616F000E626FD8EC1DF033D0155126
:104C9E00020A17E1010E05015F6F010E606F160E1D
:104CAE00616F010E626FD8EC1DF0020E05015F6F91
:104CBE00010E606F2C0E616F010E626FD8EC1DF04D
:104CCE0019D01551030A16E1010E05015F6F010E91
:104CDE00606F390E616F010E626FD8EC1DF0020E1F
:104CEE0005015F6F010E606F1F0E616F010E626F27
:104CFE00D8EC1DF0060E0B6E130E0C6EAD0E0D6E77
:104D0E000D2EFED70C2EFCD70B2EFAD7000000006E
:104D1E00010E0501946F33EC0CF001011551010ADF
:104D2E0003E116EC21F044D001011551020A1CE1F9
:104D3E00010E05015F6F010E606F230E616F010E94
:104D4E00626FD8EC1DF0020E05015F6F040E606FEE
:104D5E00E50E616F000E626FD8EC1DF0320E05018C
:104D6E005F6FC0EC1EF024D001011551030A20E143
:104D7E00010E05015F6F010E606FC70E616F000EB1
:104D8E00626FD8EC1DF0330E05015F6FC0EC1EF0A4
:104D9E00BCEC20F0040E0B6E0C0E0C6E330E0D6E72
:104DAE000D2EFED70C2EFCD70B2EFAD700000000CE
:044DBE0045D7FFD7FF
:10501A0010EE15F0320E006E020E016EC20EF66E22
:0E502A004D0EF76E000EF86EB4EC20F0120082
:0B4DC20074727920616761696E210046
:0A4DCD004E756D626572313A2000E8
:014DD70000DB
:0E4DD800496E636F727265637420505721003C
:094DE600456E746572204F7000E7
:094DEF0020526573756C742000FC
:094DF80020526573756C742000F3
:094E01004E756D626572323A00D3
:064E0A004552524F520018
:0C4E1000436F72726563742050572100DC
:014E1C000095
:104E1D00536574204E65772050617373776F72649C
:024E2D003A0049
:084E2F004E6967687420200041
:084E37004D6F726E696E670099
:014E3F000072
:104E4000456E7465722050617373776F7264203A97
:014E50000061
:054E510000000000005C
:0E4E560050617373776F72642053657421008E
:094E640020526573756C74200086
:074E6D00416C61726D210030
:084E74004D6F646520333A0024
:0F4E7C0053797374656D204C6F636B656421000F
:074E8B00286E756C6C290014
:0B4E92002052756E6E696E67212000D3
:094E9D004D6F646520313A2000DC
:0B4EA60043616C63756C61746F7200F7
:104EB10050726573732074686520627574746F6DC8
:014EC10000F0
:014EC20000EF
:094EC3004D6F646520323A2000B5
:044ECC004C44520000
:094ED0004D6F646520323A2000A8
:0D4ED90053657276657220416C61726D0048
:084EE6004D6F646520333A00B2
:064EEE004C44523D20007F
:104EF4000000007FCDCC4C7B0AD723786F1203755A
:104F040017B75171ACC5276EBD37066B95BF566791
:104F140077CC2B645F700961FFE65B5D08E53C3C80
:044F24006042221BAA
:104F28000000007F000020820000488500007A8889
:104F380000401C8C0050438F002474928096189671
:104F480020BC3E99286B6E9CF90215A0EC782DC107
:044F5800CAF249E26E
:104F5C0001000000080000004000000000020000FA
:104F6C000010000000800000000004000000200081
:104F7C0000000001000000080000004000000000DC
:104F8C00010000000A00000064000000E8030000BB
:104F9C0010270000A086010040420F008096980068
:084FAC0000E1F50500CA9A3B83
:104FB40001000000100000000001000000100000CB
:104FC40000000100000010000000000100000010BB
:104FD400303132333435363738394142434445462B
:014FE40000CC
:104FE500303132333435363738396162636465665A
:014FF50000BB
:0F4FF6004C6F636B65643A20256420736563001C
:05500500252E316600BC
:05500A00252E316600B7
:05500F00252E316600B2
:05501400252E316600AD
:020000040030CA
:0E000000000C1F1EFF8381FF0FC00FE00F409A
:00000001FF
