:1000000016EF00F00000000000EF00F0000000001C
:0A0010000000000000000000F3D71C
:10001C000900F5CFE6FF0006FBE10106F9E112004D
:10002C00020EF66E020EF76E000EF86E150EE16EF5
:10003C00000EE26E200E006E010E016EE9DF956A75
:10004C00939093929394948E938E92909292155245
:10005C0023E081AC21D0176A166A186A240EE96E67
:10006C00000EEA6E1750E926D8B0EA2AEECF8CFFC4
:10007C00190EE96E000EEA6E1650E926D8B0EA2A7F
:10008C00EECF8CFF2B0EE96E000EEA6E1850E926AF
:10009C00D8B0EA2AEECF8CFF81AE66D016500A0893
:1000AC0063E38A908A828A84190EE96E000EEA6EE6
:1000BC001650E926D8B0EA2AEECF8CFF0D0E0C6E46
:1000CC00FB0E0D6E0D2EFED70C2EFCD70000000083
:1000DC008A808A928A84240EE96E000EEA6E17508A
:1000EC00E926D8B0EA2AEECF8CFF0D0E0C6EFB0E73
:1000FC000D6E0D2EFED70C2EFCD7000000008A8052
:10010C008A828A942B0EE96E000EEA6E1850E9264C
:10011C00D8B0EA2AEECF8CFF0D0E0C6EFB0E0D6ED6
:10012C000D2EFED70C2EFCD700000000680E0C6EB6
:10013C00E40E0D6E0D2EFED70C2EFCD70000162AE9
:10014C0016500A0A0BE1166A172A1750060A06E11E
:10015C00176A182A18500A0AD8B4186A82AE03D043
:10016C00010E156E01D09AD78A908A828A84190E54
:10017C00E96E000EEA6E1650E926D8B0EA2AEECFE8
:10018C008CFF0D0E0C6EFB0E0D6E0D2EFED70C2E75
:10019C00FCD7000000008A808A928A84240EE96EC3
:1001AC00000EEA6E1750E926D8B0EA2AEECF8CFF83
:1001BC000D0E0C6EFB0E0D6E0D2EFED70C2EFCD7FD
:1001CC00000000008A808A828A942B0EE96E000E51
:1001DC00EA6E1850E926D8B0EA2AEECF8CFF0D0E45
:1001EC000C6EFB0E0D6E0D2EFED70C2EFCD70000E8
:0601FC0000002DD7FFD723
:0102020000FB
:0102030000FA
:0102040000F9
:0102050000F8
:0B0206003F3F065B4F666D7D077F6F7A
:070211003F065B4F666D3FE5
:0A021800BF86DBCFE6EDFD87FFEFA8
:020000040030CA
:0E000000000C1F1EFF8381FF0FC00FE00F409A
:00000001FF
