:1000000016EF00F00000000000EF00F0000000001C
:0A0010000000000000000000F3D71C
:10001C000900F5CFE6FF0006FBE10106F9E112004D
:10002C00156A080E166E140E176E1C0E186E630EE3
:10003C00196E6B0E1A6E770E1B6E956AFF0E8C6E18
:10004C00100E0B6E390E0C6E0D0E0D6E0D2EFED7A6
:10005C000C2EFCD70B2EFAD7000000008C6A152A48
:10006C001550060AD8B4156A81AE1AD0160EE96E70
:10007C00000EEA6E1550E926D8B0EA2AEECF8CFFB6
:10008C00100E0B6E390E0C6E0D0E0D6E0D2EFED766
:10009C000C2EFCD70B2EFAD7000000008C6A156AC8
:0400AC00DED7FFD7C5
:020000040030CA
:0E000000000C1F1EFF8381FF0FC00FE00F409A
:00000001FF
