:100000007AEF09F00000000000EF00F000000000AF
:0A0010000000000000000000F3D71C
:10001C000B820BAE18EF00F00368026801680068F1
:08002C000A360232FF0E120039
:080034000AAE029E000E12004C
:10003C000B840BAE29EF00F0010E036E026A016A0D
:0A004C00006A0A360232FF0E1200AD
:0E005600026A016A006A086A036A000E12005C
:100064000CB074EF00F00CA21AEF01F00E6A000E4F
:1000740002648BEF00F0F00E0214D8A456EF00F0E7
:10008400023A01380F0B02260138F00B016E0038DA
:100094000F0B01260038F00B006E08380F0B0026FA
:1000A4000838F00B086E0E84D89002BE6FEF00F093
:1000B40008360036013602360E2A02BE6FEF00F013
:1000C40008360036013602360E2A02BE6FEF00F003
:1000D40008360036013602360E2A0E50036410EF3D
:1000E40001F0035E0BBC08AE15EF01F0D880800E62
:1000F40008640030000E002201220222D8A015EF6D
:1001040001F0023201320032034A1AEF01F015EF16
:1001140001F001C002F000C001F008C000F0086A5C
:10012400000E0E860264C2EF00F0F00E0214D8A492
:10013400AAEF00F0023A01380F0B02260138F00B47
:10014400016E00380F0B01260038F00B006E0E8490
:10015400D89002BE6FEF00F00036013602360E2A48
:1001640002BE6FEF00F00036013602360E2A02BEE0
:100174006FEF00F00036013602360E2A6FEF00F002
:1001840001C002F000C001F0006A000E0E960E8855
:100194000264EFEF00F0F00E0214D8A4DAEF00F0DE
:1001A400023A01380F0B02260138F00B016E0E845F
:1001B400D89002BE6FEF00F0013602360E2A02BE5E
:1001C4006FEF00F0013602360E2A02BE6FEF00F028
:1001D400013602360E2A6FEF00F001C002F0016A08
:1001E400000E0E8602641FEF01F0F00E0214D8A474
:1001F400FEEF00F0023A0E84D89002BE6FEF00F0DA
:1002040002360E2A02BE6FEF00F002360E2A02BE3C
:100214006FEF00F002360E2A6FEF00F0010E0C6E45
:100224000BDF22EF01F0020E0C6E02DF22EF01F071
:10023400040E0C6EF1DE22EF01F0080E0C6E09DFE5
:020244001200A6
:100246000B1E0A1E091E081E082AD8B4092AD8B48D
:080256000A2AD8B40B2A120099
:0A025E00070E0D6E0D2EFED71200E4
:10026800086A096A100E0C6E013408360936045003
:10027800085E0550D8A0053C095ED8B007D00450E8
:1002880008260550D8B0053C0926D8900036013616
:060298000C2EEAD7120053
:10029E000C6A0E6A0250D8A468EF01F001C002F099
:1002AE0000C001F0006A0E860250D8A468EF01F07B
:1002BE0001C002F0016A0E960E880250D8B47AEF91
:1002CE0001F00E50035ED8A4D8A07FEF01F0D890B5
:1002DE0002BE84EF01F0003601360236032E6FEFB8
:1002EE0001F07FEF01F0010E0C6EAEDE87EF01F034
:1002FE00020E0C6E9CDE87EF01F0040E0C6E93DE88
:02030E001200DB
:100310000B800BAE94EF01F0026A0AAEFF0E026E84
:0C032000016E006E0A360232FF0E120061
:10032C000450085E0550D8A0053C095E0650D8A0C4
:10033C00063C0A5E0750D8A0073C0B5E0336070E3E
:10034C000C6E0334083609360A360B36045003A0FB
:10035C000ED0085E0550D8A0053C095E0650D8A00A
:10036C00063C0A5E0750D8A0073C0B5E0DD0082651
:10037C000550D8B0053C09260650D8B0063C0A26D4
:10038C000750D8B0073C0B2603360C2EDAD70234B4
:10039C00083609360A360B36045003A00ED0085E18
:1003AC000550D8A0053C095E0650D8A0063C0A5E54
:1003BC000750D8A0073C0B5E0DD008260550D8B0CE
:1003CC00053C09260650D8B0063C0A260750D8B082
:1003DC00073C0B260236070E0C6E02340836093623
:1003EC000A360B36045002A00ED0085E0550D8A079
:1003FC00053C095E0650D8A0063C0A5E0750D8A002
:10040C00073C0B5E0DD008260550D8B0053C0926DC
:10041C000650D8B0063C0A260750D8B0073C0B262D
:10042C0002360C2EDAD70134083609360A360B366A
:10043C00045002A00ED0085E0550D8A0053C095E01
:10044C000650D8A0063C0A5E0750D8A0073C0B5EAD
:10045C000DD008260550D8B0053C09260650D8B05A
:10046C00063C0A260750D8B0073C0B260136070E6F
:10047C000C6E0134083609360A360B36045001A0CE
:10048C000ED0085E0550D8A0053C095E0650D8A0D9
:10049C00063C0A5E0750D8A0073C0B5E0DD0082620
:1004AC000550D8B0053C09260650D8B0063C0A26A3
:1004BC000750D8B0073C0B2601360C2EDAD7003487
:1004CC00083609360A360B36045001A00ED0085EE9
:1004DC000550D8A0053C095E0650D8A0063C0A5E23
:1004EC000750D8A0073C0B5E0DD008260550D8B09D
:1004FC00053C09260650D8B0063C0A260750D8B051
:10050C00073C0B260036070E0C6E003408360936F5
:10051C000A360B36045000A00ED0085E0550D8A049
:10052C00053C095E0650D8A0063C0A5E0750D8A0D0
:10053C00073C0B5E0DD008260550D8B0053C0926AB
:10054C000650D8B0063C0A260750D8B0073C0B26FC
:10055C0000360C2EDAD700B00ED004500826055009
:10056C00D8B0053C09260650D8B0063C0A260750E0
:08057C00D8B0073C0B26120069
:100584000B6A0A6A096A00500402F4CF09F0F3CF37
:1005940008F001500502F4CF0BF0F3CF0AF000503D
:1005A4000502F3500926F4500A22E86A0B2201508E
:1005B4000402F3500926F4500A22E86A0B2208C008
:1005C40000F009C001F00AC002F00BC003F01200F1
:0805D4000B6A0B86FF0E1200FA
:1005DC00025006180E6E086A096A0B6A035007640B
:1005EC00E1EF03F006500A6E068E028E03500B6E7E
:1005FC000750036E000E0B6431EF03F00B50075ED7
:10060C00D8B4D2EF03F0070E0764A0EF03F0075E37
:10061C0000C008F001C000F002C001F0026A074EF1
:10062C00D2EF03F0076475EF03F0075E00C008F02B
:10063C0001C000F0016A074ED2EF03F0076453EFDC
:10064C0003F0075E00C008F0006A074ED2EF03F01B
:10065C0007643AEF03F00AC002F005C001F004C0D1
:10066C0000F0086AFEEF04F0030E076445EF03F098
:10067C00075E08380F0B086E074ED2EF03F0D890C8
:10068C000832074ED2EF03F0D8900832074ED2EF63
:10069C0003F0D8900832D2EF03F0030E076464EF36
:1006AC0003F0075E08380F0B086E0038F00B0826B5
:1006BC0000380F0B006E074ED2EF03F0D8900032CB
:1006CC000832074ED2EF03F0D89000320832074EB2
:1006DC00D2EF03F0D89000320832D2EF03F0030EC1
:1006EC0007648CEF03F0075E08380F0B086E0038B8
:1006FC00F00B082600380F0B006E0138F00B0026AB
:10070C0001380F0B016E074ED2EF03F0D890013277
:10071C0000320832074ED2EF03F0D890013200328B
:10072C000832074ED2EF03F0D89001320032083273
:10073C00D2EF03F0030E0764BDEF03F0075E083839
:10074C000F0B086E0038F00B082600380F0B006EEC
:10075C000138F00B002601380F0B016E0238F00B3C
:10076C00012602380F0B026E074ED2EF03F0D89021
:10077C000232013200320832074ED2EF03F0D89029
:10078C000232013200320832074ED2EF03F0D89019
:10079C000232013200320832096A000E0EAEC6EF88
:1007AC0004F0081E001E011E021E082A002201224F
:1007BC000222C6EF04F00750D8A4E7EF03F0FEEFD7
:1007CC0004F0096A02C00AF0028E068E0750035C20
:1007DC00076ED8B4B9EF04F0070E076487EF04F086
:1007EC00075E0450096E0550046E0650056E066ACD
:1007FC00074EB9EF04F0070E07645CEF04F0075ED8
:10080C000450096E0550046E056A074EB9EF04F0EA
:10081C00070E07643AEF04F0075E0450096E046A91
:10082C00074EB9EF04F0070E076421EF04F00AC07D
:10083C0002F0FEEF04F0030E07642CEF04F0075EE9
:10084C0009380F0B096E074EB9EF04F0D890093236
:10085C00074EB9EF04F0D8900932074EB9EF04F007
:10086C00D8900932B9EF04F0030E07644BEF04F093
:10087C00075E09380F0B096E0438F00B0926043893
:10088C000F0B046E074EB9EF04F0D8900432093206
:10089C00074EB9EF04F0D89004320932074EB9EF85
:1008AC0004F0D89004320932B9EF04F0030E076457
:1008BC0073EF04F0075E09380F0B096E0438F00B68
:1008CC00092604380F0B046E0538F00B0426053886
:1008DC000F0B056E074EB9EF04F0D89005320432B9
:1008EC000932074EB9EF04F0D890053204320932C0
:1008FC00074EB9EF04F0D890053204320932B9EF43
:10090C0004F0030E0764A4EF04F0075E09380F0B24
:10091C00096E0438F00B092604380F0B046E0538E9
:10092C00F00B042605380F0B056E0638F00B052668
:10093C0006380F0B066E074EB9EF04F0D89006324E
:10094C00053204320932074EB9EF04F0D890063262
:10095C00053204320932074EB9EF04F0D890063252
:10096C00053204320932086A000E0EAEC6EF04F0EE
:10097C00091E041E051E061E092A04220522062233
:10098C00095008260450002205500122065002226C
:10099C000EBEDDEF04F0D8A0ECEF04F00232013211
:1009AC0000320832033EECEF04F0F8EF04F0D8B05C
:1009BC00F2EF04F0000E081E001E011E021E082A93
:1009CC000022012202220A7EF2EF04F0010E0C6ECC
:1009DC0032EC00F000EF05F0020E0C6E32EC00F081
:1009EC0000EF05F0040E0C6E0EEC00F000EF05F0BD
:0609FC00000E0C6E12005B
:100A02000B6A0350D8B447EF05F002500A6E028E0B
:100A12008E0E035E03AE4BEF05F0036C080E035C13
:100A2200D8A026EF05F0036E013602C001F0026A7B
:100A3200080E035CD8A026EF05F0036E0136016AAA
:100A42000350D8A4D89030EF05F00350D8B430EF5B
:100A520005F0D89002320132032E2AEF05F00BBCCA
:100A620001A03DEF05F0D8A03DEF05F0012AD8B472
:100A7200022A02BE5AEF05F00AAE5FEF05F0021E2F
:100A8200011E012AD8B4022A5FEF05F0026A016A48
:100A92005FEF05F00B800BAE63EF05F0026A0AAE62
:100AA20063EF05F0FF0E026E016E0A36023263EF4B
:100AB20005F0010E0C6E2BDC65EF05F0000E0C6EDE
:100AC20065EF05F0FF0E0C6E0150006E0250016ED4
:020AD200120010
:0E0AD400ACB202D00000FCD751C0ADFF120042
:100AE200CB50010F006E016A000E012251C004F0CA
:100AF200000E056E46DD060E026E00C004F001C057
:100B020005F0025005E005320432059EFF0FFAD7C8
:100B1200040E016E04C000F0015004E000360090A3
:100B2200FF0FFBD7300E0014036E04C000F005C0A7
:100B320001F001320032019E01320032019E00C0FA
:0C0B4200BEFF0F0EBD160350BD121200C6
:100B4E00C26A291C006E0050C116070EC012C08E5C
:100B5E0051C000F000360090003600900050C212D6
:100B6E00C2802FEC01F0C282C2A201D0FDD7C4CF49
:100B7E0001F0006AC3500012000E0112C290120062
:100B8E00086A096A000E076203644CEF06F0025011
:100B9E0006180A6E075003267E0ED8A0DDEF05F06C
:100BAE00035ED8B051EF06F0E1EF05F0035ED8A07A
:100BBE0056EF06F0028E068E02C00EF001C00BF04C
:100BCE0000C00DF000500402F4CF0CF001500502ED
:100BDE00F4CF00F0F3CF08F00402F3500C26F450DB
:100BEE000822000E00220D500502F3500C26F45080
:100BFE000822000E002202500402F3500826F45080
:100C0E00002202500502016A000E0122F350002656
:100C1E00F45001220D500602F3500826F450002223
:100C2E00026A000E012202220B500602F350002629
:100C3E00F4500122000E02220E500602F35001263D
:100C4E00F450022202BE34EF06F0083600360136AA
:100C5E0002360306D8B456EF06F047EF06F0D880FA
:100C6E00800E08640030000E002201220222D8A05D
:100C7E0047EF06F0023201320032034A51EF06F01E
:100C8E000AAE029E000E59EF06F0010E2BEC00F09C
:100C9E0059EF06F0020E0EEC00F059EF06F0040EBE
:060CAE001EEC00F0120034
:080CB400BE6ABD98BD9A120052
:100CBC00FF0E3B6EFF0E3C6EFF0E3D6EFF0E3E6E4A
:100CCC00C26A291C006E0050C116070EC012C08EDD
:040CDC00C2801200C0
:100CE00000C008F00150006E016A026A036A0B6AD4
:100CF0000C6A016A026A036A960E036E0A6A00AE03
:100D000088EF06F0081E001E082AD8B4002A0A8EB2
:100D100000C001F008C000F0086A026A4FEC01F060
:020D20001200BF
:100D2200AECF01F0ABA202D0AB98AB8801C000F00D
:020D32001200AD
:100D34000450000A12E10550000A0FE10650000AAF
:100D44000CE10750000A09E1FF0E006EFF0E016E70
:100D54007F0E026EFF0E036EA8D0086A096A075060
:100D6400D8B445EF07F00350D8B44AEF07F0025067
:100D740006180A6E028E068E0E6A02C008F001C0C2
:100D84000CF000C00DF004500D5E0550D8A0053CD9
:100D94000C5E0650D8A0063C085E086A0C6A0D6A10
:100DA400D8A0DCEF06F0D8900232013200320832CB
:100DB400010E0E6E0750035ED8A0E9EF06F07E0E1A
:100DC4000E240326D8B04FEF07F0EFEF06F07E0EA7
:100DD4000E240326D8A054EF07F0180E0B6E0D3620
:100DE4000C3608360036013602360E360450005EE4
:100DF4000550D8A0053C015E0650D8A0063C025E12
:100E040006340E120EA00AEF07F00D8015EF07F05E
:100E1400045000260550D8B0053C01260650D8B031
:100E2400062802260D900B2EF1EF06F03BEF07F09B
:100E3400D8900036013602360E360450005E055056
:100E4400D8A0053C015E0650D8A0063C025E0634DC
:100E54000E10010B0D26D8B00C2AD8B4082AD8A439
:100E64003BEF07F008320C320D32032AD8B44FEFAF
:100E740007F00AAE089E0850026E0C50016E0D5029
:100E8400006E57EF07F0010EEAEC02F057EF07F09F
:100E9400020E2BEC00F057EF07F0040E0EEC00F0FE
:0C0EA40057EF07F0080E1EEC00F01200E3
:100EB000D40E456E0A0E466E510E476E000E486EF9
:100EC000220E416E0D0E426E000E436E000E446EF9
:100ED000FF0E4D6EFF0E4E6E000E4F6E000E506EEA
:100EE000FF0E496EFF0E4A6E000E4B6E000E4C6EEA
:100EF000AC8A900EAB6E948E949C9EAA03D0AECF1B
:060F000000F0FBD7120017
:0A0F06009494CA840C0EBD12120070
:100F10000450000A12E10550000A0FE10650000AD1
:100F20000CE10750000A09E1FF0E006EFF0E016E92
:100F3000FF0E026E7F0E036E99D00C6A07BE0C2A5C
:100F40000D6A0B6A0A6A096A086A035002100110E6
:100F50000010D8B485D0035007180E6E0EBE0D1EBB
:100F600007AE0BD0041E051E061E071E042AD8B4A9
:100F7000052AD8B4062AD8B4072A03AE0BD0001E1F
:100F8000011E021E031E002AD8B4012AD8B4022A68
:100F9000D8B4032A035007100E6E0EBE1DD096EC77
:100FA00001F00CBE36D00DAE5BD0001E011E021E3D
:100FB000031E002AD8B4012AD8B4022AD8B4032ABE
:100FC000081E091E0A1E0B1E082AD8B4092AD8B406
:100FD0000A2AD8B40B2A44D007AE15D003BE0DD0D0
:100FE00003500B6E02500A6E0150096E0050086EDD
:100FF000036A026A016A006AD6D7036A026A016A52
:10100000006A002A000C031E021E011E001E0C8E28
:10101000C6D7082AD8B4092AD8B40A2AD8B40B2AC1
:101020000450085CD8A4BFD70550095CD8A4BBD72E
:1010300006500A5CD8A4B7D707500B5CD8A4B3D726
:101040000B6A0A6A096A086A002AD8B4012AD8B465
:10105000022AD8B4032A03AEA6D70E6A0E88FF0C64
:0E1060000E6A0CA002D023EC01F0000F12006B
:08106E00067EEEEC02F0120018
:10107600150E2E24E96E000E2F20EA6EEECF81FFAC
:101086008390040E0C6EE40E0D6E0D2EFED70C2E04
:10109600FCD700008380150E3224E96E000E332043
:1010A600EA6EEECF81FF8392040E0C6EE40E0D6E97
:1010B6000D2EFED70C2EFCD7000083821F0E2A248D
:1010C600E96E000E2B20EA6EEECF81FF8394040EAC
:1010D6000C6EE40E0D6E0D2EFED70C2EFCD7000006
:1010E6008384150E2C24E96E000E2D20EA6EEECFB9
:1010F60081FF8396040E0C6EE40E0D6E0D2EFED748
:0A1106000C2EFCD7000083861200B7
:101110000900F5CFE6FF0006FBE10106F9E1120048
:10112000640E046E000E056E30C000F031C001F098
:1011300034EC01F00A0E046E000E056E34EC01F082
:1011400008C000F009C001F000C02EF001C02FF06F
:101150000A0E046E000E056E30C000F031C001F0C2
:1011600034EC01F00A0E046E000E056E34EC01F052
:1011700008C000F009C001F000C032F001C033F037
:101180000A0E046E000E056E30C000F031C001F092
:1011900034EC01F008C000F009C001F000C02AF0F2
:1011A00001C02BF0E80E046E030E056E30C000F097
:1011B00031C001F034EC01F000C02CF001C02DF082
:0211C00012001B
:1011C2000B6A0C6A086A0350D8B465EF09F002C0D2
:1011D2000AF0028E9E0E035E03AE55EF09F0036C19
:1011E200080E035CD8A022EF09F0036E083600C097
:1011F20008F001C000F002C001F0026A080E035CB0
:10120200D8A022EF09F0036E083600C008F001C032
:1012120000F0016A080E035CD8A022EF09F0036E09
:10122200083600C008F0006A080E035CD8A022EF5E
:1012320009F0036E0836086A0350D8A4D8902EEF3E
:1012420009F00350D8B42EEF09F0D89002320132DF
:1012520000320832032E26EF09F00BBC08A03FEF44
:1012620009F0D8A03FEF09F0082AD8B4002AD8B470
:10127200012AD8B4022A02BE69EF09F00AAE65EF6C
:1012820009F0021E011E001E081E082AD8B4002AF8
:10129200D8B4012AD8B4022A65EF09F0026A016AB9
:1012A200006A086A65EF09F00B800BAE70EF09F077
:1012B200026A0AAE70EF09F0026E016E006E086EED
:1012C2000A36023270EF09F00C6A000E71EF09F073
:1012D200010E0C6E000E88EC01F071EF09F0FF0EAA
:1012E2000250036E0150026E0050016E0850006EF3
:0212F2001200E8
:1012F400C0EC0AF09590959295949596949094925A
:101304009598959A959C959E95809490816A936AF8
:10131400CA90CA92C70ECB6ECBDC8380838283844F
:101324008386B886B06A670EAF6EAC84BFDD820E6A
:101334000C6EDD0E0D6E0D2EFED70C2EFCD70000AC
:101344000000BADCECDC00C034F00050320AD8A44F
:10135400B1D0516AA7EC05F000C035F001C036F0F9
:10136400BDDCEC0E046E670E056E1C0E066E810E5F
:10137400076E0BDC24DF00C037F001C038F002C078
:1013840039F003C03AF00A0E046E000E056E066EC4
:10139400076EBCDD00C037F001C038F002C039F080
:1013A40003C03AF000C030F001C031F0B7DE61DEB6
:1013B400000E006E3150005C02E1305032081FE232
:1013C400A0DDFF0E516E71EC05F08280820E0C6E72
:1013D400DD0E0D6E0D2EFED70C2EFCD70000000086
:1013E4008C888C8A820E0C6EDD0E0D6E0D2EFED74F
:1013F4000C2EFCD7000000008C988C9A5AD0000E5A
:10140400315C02E11E0E305C20E27BDD516A71EC3E
:1014140005F08290820E0C6EDD0E0D6E0D2EFED741
:101424000C2EFCD7000000008C88030E0B6E8A0E75
:101434000C6E550E0D6E0D2EFED70C2EFCD70B2EFA
:10144400FAD7000000008C9834D0000E315C02E121
:101454001E0E305C2EE3000E006E3150005C02E183
:101464003050320826E34DDD7F0E516E71EC05F0ED
:1014740082808C88030E0B6E8A0E0C6E550E0D6ED8
:101484000D2EFED70C2EFCD70B2EFAD70000000031
:101494008C988C8A030E0B6E8A0E0C6E550E0D6E94
:1014A4000D2EFED70C2EFCD70B2EFAD70000000011
:1014B4008C9A4FD03450330A38E1516A71EC05F0FC
:1014C4008290010E516EA7EC05F008DC140E046E38
:1014D400AE0E056E230E066E820E076E29DC00C06A
:1014E40004F001C005F002C006F003C007F0000ECE
:1014F400006E000E016E480E026E850E036EB5DDA1
:1015040001EC05F000C03FF001C040F000C051F014
:101514006AEC05F00D0E0C6EFB0E0D6E0D2EFED753
:101524000C2EFCD70000000014D03450340A11E112
:101534008C8C060E0B6E130E0C6EAD0E0D6E0D2EF6
:10154400FED70C2EFCD70B2EFAD7000000008C9C83
:101554008C8EF8D60D2EFED70C2EFCD70B2EFAD778
:0615640000000000FFD7AB
:1015800010EE15F0150E006E010E016E6A0EF66E6D
:0E159000150EF76E000EF86E88EC08F01200D3
:0A156A003F065B4F666D7D077F6F43
:0A157400BF86DBCFE6EDFD87FFE741
:01157E00303C
:020000040030CA
:0E000000000C1F1EFF8381FF0FC00FE00F409A
:00000001FF
