:1000000016EF00F00000000000EF00F0000000001C
:0A0010000000000000000000F3D71C
:10001C000900F5CFE6FF0006FBE10106F9E112004D
:10002C00720EF66E010EF76E000EF86E150EE16E86
:10003C00000EE26E1F0E006E010E016EE9DF956A76
:10004C00936A946A948E938E958E9290155223E0B7
:10005C0083AE21D0166A016A176A230EE96E000E70
:10006C00EA6E1650E926D8B0EA2AEECF8AFF180EAF
:10007C00E96E000EEA6E0150E926D8B0EA2AEECFFE
:10008C008BFF2A0EE96E000EEA6E1750E926D8B0E7
:10009C00EA2AEECF8CFF81AE46D001500A0843E32A
:1000AC00012A180EE96E000EEA6E0150E926D8B04E
:1000BC00EA2AEECF8CFF020E0B6E040E0C6EBA0EFB
:1000CC000D6E0D2EFED70C2EFCD70B2EFAD7000082
:1000DC0001500A0A0CE1016A162A230EE96E000E81
:1000EC00EA6E1650E926D8B0EA2AEECF8AFF1650EF
:1000FC00060A0FE10150000A0CE1166A172A2A0EB3
:10010C00E96E000EEA6E1750E926D8B0EA2AEECF57
:10011C008BFF17500A0AD8B4176A82AE03D0010EAF
:10012C00156E01D0BAD7230EE96E000EEA6E16508A
:10013C00E926D8B0EA2AEECF8AFF180EE96E000E37
:10014C00EA6E0150E926D8B0EA2AEECF8CFF2A0ECF
:10015C00E96E000EEA6E1750E926D8B0EA2AEECF07
:06016C008BFF74D7FFD7E2
:01017200008C
:01017300008B
:01017400008A
:0B0175003F3F065B4F666D7D077F6F0C
:070180003F065B4F666D3F77
:0A0187003F065B4F666D7D077F6F3A
:020000040030CA
:0E000000000C1F1EFF8381FF0FC00FE00F409A
:00000001FF
