:1000000016EF00F00000000000EF00F0000000001C
:0A0010000000000000000000F3D71C
:10001C000900F5CFE6FF0006FBE10106F9E112004D
:10002C00946A9290938C938E81AC30D0818C81ACFD
:10003C0001D0FCD78BCF00F00036009000C08BFFB6
:10004C008B50000A02E1010E8B6E030E0B6E8A0EB2
:10005C000C6E550E0D6E0D2EFED70C2EFCD70B2EE6
:10006C00FAD7000000008BAE10D08980030E0B6E07
:10007C008A0E0C6E550E0D6E0D2EFED70C2EFCD767
:10008C000B2EFAD70000000001D0899081AE30D041
:10009C00818E81AE01D0FCD78BCF00F00032009E58
:1000AC0000C08BFF8B50000A02E1800E8B6E030E9A
:1000BC000B6E8A0E0C6E550E0D6E0D2EFED70C2E81
:1000CC00FCD70B2EFAD7000000008BA010D0898033
:1000DC00030E0B6E8A0E0C6E550E0D6E0D2EFED78A
:1000EC000C2EFCD70B2EFAD70000000001D0899003
:0400FC009BD7FFD7B8
:020000040030CA
:0E000000000C1F1EFF8381FF0FC00FE00F409A
:00000001FF
